{
  "_format": "hh-sol-artifact-1",
  "contractName": "EscrowRegistry",
  "sourceName": "contracts/RealEstateEscrow.sol",
  "abi": [
    {
      "inputs": [
        {
          "internalType": "address",
          "name": "",
          "type": "address"
        }
      ],
      "name": "agentFeeRate",
      "outputs": [
        {
          "internalType": "uint256",
          "name": "",
          "type": "uint256"
        }
      ],
      "stateMutability": "view",
      "type": "function"
    },
    {
      "inputs": [
        {
          "internalType": "address",
          "name": "agent",
          "type": "address"
        }
      ],
      "name": "getFeeRate",
      "outputs": [
        {
          "internalType": "uint256",
          "name": "",
          "type": "uint256"
        }
      ],
      "stateMutability": "view",
      "type": "function"
    },
    {
      "inputs": [
        {
          "internalType": "address",
          "name": "agent",
          "type": "address"
        },
        {
          "internalType": "uint256",
          "name": "feeRate",
          "type": "uint256"
        }
      ],
      "name": "setFeeRate",
      "outputs": [],
      "stateMutability": "nonpayable",
      "type": "function"
    }
  ],
  "bytecode": "0x6080604052348015600f57600080fd5b506103918061001f6000396000f3fe608060405234801561001057600080fd5b50600436106100415760003560e01c80638198edbf146100465780638a4b3ecd14610076578063942dc573146100a6575b600080fd5b610060600480360381019061005b9190610211565b6100c2565b60405161006d9190610257565b60405180910390f35b610090600480360381019061008b9190610211565b61010a565b60405161009d9190610257565b60405180910390f35b6100c060048036038101906100bb919061029e565b610122565b005b60008060008373ffffffffffffffffffffffffffffffffffffffff1673ffffffffffffffffffffffffffffffffffffffff168152602001908152602001600020549050919050565b60006020528060005260406000206000915090505481565b612710811115610167576040517f08c379a000000000000000000000000000000000000000000000000000000000815260040161015e9061033b565b60405180910390fd5b806000808473ffffffffffffffffffffffffffffffffffffffff1673ffffffffffffffffffffffffffffffffffffffff168152602001908152602001600020819055505050565b600080fd5b600073ffffffffffffffffffffffffffffffffffffffff82169050919050565b60006101de826101b3565b9050919050565b6101ee816101d3565b81146101f957600080fd5b50565b60008135905061020b816101e5565b92915050565b600060208284031215610227576102266101ae565b5b6000610235848285016101fc565b91505092915050565b6000819050919050565b6102518161023e565b82525050565b600060208201905061026c6000830184610248565b92915050565b61027b8161023e565b811461028657600080fd5b50565b60008135905061029881610272565b92915050565b600080604083850312156102b5576102b46101ae565b5b60006102c3858286016101fc565b92505060206102d485828601610289565b9150509250929050565b600082825260208201905092915050565b7f466565207261746520746f6f2068696768000000000000000000000000000000600082015250565b60006103256011836102de565b9150610330826102ef565b602082019050919050565b6000602082019050818103600083015261035481610318565b905091905056fea2646970667358221220c4a42190f5b06c836b18dfaaa6e1d20fe553031d81e79a66076b95e193334f6164736f6c634300081c0033",
  "linkReferences": {},
  "deployedLinkReferences": {}
}