{
  "_format": "hh-sol-artifact-1",
  "contractName": "EscrowFactory",
  "sourceName": "contracts/RealEstateEscrow.sol",
  "abi": [
    {
      "inputs": [
        {
          "internalType": "address",
          "name": "_registry",
          "type": "address"
        }
      ],
      "stateMutability": "nonpayable",
      "type": "constructor"
    },
    {
      "anonymous": false,
      "inputs": [
        {
          "indexed": true,
          "internalType": "address",
          "name": "escrow",
          "type": "address"
        },
        {
          "indexed": true,
          "internalType": "address",
          "name": "buyer",
          "type": "address"
        },
        {
          "indexed": true,
          "internalType": "address",
          "name": "seller",
          "type": "address"
        }
      ],
      "name": "EscrowCreated",
      "type": "event"
    },
    {
      "inputs": [
        {
          "internalType": "uint256",
          "name": "",
          "type": "uint256"
        }
      ],
      "name": "allEscrows",
      "outputs": [
        {
          "internalType": "address",
          "name": "",
          "type": "address"
        }
      ],
      "stateMutability": "view",
      "type": "function"
    },
    {
      "inputs": [
        {
          "internalType": "address",
          "name": "_buyer",
          "type": "address"
        },
        {
          "internalType": "address",
          "name": "_seller",
          "type": "address"
        },
        {
          "internalType": "uint256",
          "name": "_purchaseAmount",
          "type": "uint256"
        },
        {
          "internalType": "bytes32",
          "name": "_agreementHash",
          "type": "bytes32"
        }
      ],
      "name": "createEscrow",
      "outputs": [
        {
          "internalType": "address",
          "name": "",
          "type": "address"
        }
      ],
      "stateMutability": "nonpayable",
      "type": "function"
    },
    {
      "inputs": [],
      "name": "registry",
      "outputs": [
        {
          "internalType": "address",
          "name": "",
          "type": "address"
        }
      ],
      "stateMutability": "view",
      "type": "function"
    }
  ],
  "bytecode": "0x608060405234801561001057600080fd5b50604051612f6e380380612f6e833981810160405281019061003291906100db565b806000806101000a81548173ffffffffffffffffffffffffffffffffffffffff021916908373ffffffffffffffffffffffffffffffffffffffff16021790555050610108565b600080fd5b600073ffffffffffffffffffffffffffffffffffffffff82169050919050565b60006100a88261007d565b9050919050565b6100b88161009d565b81146100c357600080fd5b50565b6000815190506100d5816100af565b92915050565b6000602082840312156100f1576100f0610078565b5b60006100ff848285016100c6565b91505092915050565b612e57806101176000396000f3fe608060405234801561001057600080fd5b50600436106100415760003560e01c80631d3afee6146100465780637b1039991461007657806398ae6dbb14610094575b600080fd5b610060600480360381019061005b919061032b565b6100c4565b60405161006d9190610399565b60405180910390f35b61007e610103565b60405161008b9190610399565b60405180910390f35b6100ae60048036038101906100a99190610416565b610127565b6040516100bb9190610399565b60405180910390f35b600181815481106100d457600080fd5b906000526020600020016000915054906101000a900473ffffffffffffffffffffffffffffffffffffffff1681565b60008054906101000a900473ffffffffffffffffffffffffffffffffffffffff1681565b600080858585853360008054906101000a900473ffffffffffffffffffffffffffffffffffffffff1673ffffffffffffffffffffffffffffffffffffffff16638198edbf336040518263ffffffff1660e01b81526004016101889190610399565b602060405180830381865afa1580156101a5573d6000803e3d6000fd5b505050506040513d601f19601f820116820180604052508101906101c99190610492565b6040516101d5906102e3565b6101e4969594939291906104dd565b604051809103906000f080158015610200573d6000803e3d6000fd5b5090506001819080600181540180825580915050600190039060005260206000200160009091909190916101000a81548173ffffffffffffffffffffffffffffffffffffffff021916908373ffffffffffffffffffffffffffffffffffffffff1602179055508473ffffffffffffffffffffffffffffffffffffffff168673ffffffffffffffffffffffffffffffffffffffff168273ffffffffffffffffffffffffffffffffffffffff167f4743c0c2884de4f19f280dbd2cc93bc24491cdf876ed107046fe8194183c09e960405160405180910390a480915050949350505050565b6128e38061053f83390190565b600080fd5b6000819050919050565b610308816102f5565b811461031357600080fd5b50565b600081359050610325816102ff565b92915050565b600060208284031215610341576103406102f0565b5b600061034f84828501610316565b91505092915050565b600073ffffffffffffffffffffffffffffffffffffffff82169050919050565b600061038382610358565b9050919050565b61039381610378565b82525050565b60006020820190506103ae600083018461038a565b92915050565b6103bd81610378565b81146103c857600080fd5b50565b6000813590506103da816103b4565b92915050565b6000819050919050565b6103f3816103e0565b81146103fe57600080fd5b50565b600081359050610410816103ea565b92915050565b600080600080608085870312156104305761042f6102f0565b5b600061043e878288016103cb565b945050602061044f878288016103cb565b935050604061046087828801610316565b925050606061047187828801610401565b91505092959194509250565b60008151905061048c816102ff565b92915050565b6000602082840312156104a8576104a76102f0565b5b60006104b68482850161047d565b91505092915050565b6104c8816102f5565b82525050565b6104d7816103e0565b82525050565b600060c0820190506104f2600083018961038a565b6104ff602083018861038a565b61050c60408301876104bf565b61051960608301866104ce565b610526608083018561038a565b61053360a08301846104bf565b97965050505050505056fe61014060405234801561001157600080fd5b506040516128e33803806128e3833981810160405281019061003391906102f4565b600073ffffffffffffffffffffffffffffffffffffffff168673ffffffffffffffffffffffffffffffffffffffff161415801561009d5750600073ffffffffffffffffffffffffffffffffffffffff168573ffffffffffffffffffffffffffffffffffffffff1614155b6100dc576040517f08c379a00000000000000000000000000000000000000000000000000000000081526004016100d3906103de565b60405180910390fd5b6000841161011f576040517f08c379a00000000000000000000000000000000000000000000000000000000081526004016101169061044a565b60405180910390fd5b6000801b8303610164576040517f08c379a000000000000000000000000000000000000000000000000000000000815260040161015b906104b6565b60405180910390fd5b8573ffffffffffffffffffffffffffffffffffffffff1660808173ffffffffffffffffffffffffffffffffffffffff16815250508473ffffffffffffffffffffffffffffffffffffffff1660a08173ffffffffffffffffffffffffffffffffffffffff16815250508173ffffffffffffffffffffffffffffffffffffffff1660c08173ffffffffffffffffffffffffffffffffffffffff16815250508360e081815250508261010081815250508061012081815250505050505050506104d6565b600080fd5b600073ffffffffffffffffffffffffffffffffffffffff82169050919050565b60006102558261022a565b9050919050565b6102658161024a565b811461027057600080fd5b50565b6000815190506102828161025c565b92915050565b6000819050919050565b61029b81610288565b81146102a657600080fd5b50565b6000815190506102b881610292565b92915050565b6000819050919050565b6102d1816102be565b81146102dc57600080fd5b50565b6000815190506102ee816102c8565b92915050565b60008060008060008060c0878903121561031157610310610225565b5b600061031f89828a01610273565b965050602061033089828a01610273565b955050604061034189828a016102a9565b945050606061035289828a016102df565b935050608061036389828a01610273565b92505060a061037489828a016102a9565b9150509295509295509295565b600082825260208201905092915050565b7f496e76616c696420616464726573730000000000000000000000000000000000600082015250565b60006103c8600f83610381565b91506103d382610392565b602082019050919050565b600060208201905081810360008301526103f7816103bb565b9050919050565b7f416d6f756e74206d7573742062652067726561746572207468616e2030000000600082015250565b6000610434601d83610381565b915061043f826103fe565b602082019050919050565b6000602082019050818103600083015261046381610427565b9050919050565b7f41677265656d656e742068617368207265717569726564000000000000000000600082015250565b60006104a0601783610381565b91506104ab8261046a565b602082019050919050565b600060208201905081810360008301526104cf81610493565b9050919050565b60805160a05160c05160e051610100516101205161230f6105d4600039600081816108dc01528181610e3b015261179c015260008181610449015281816112f1015261175b01526000818161059b0152818161080e015281816108fd015281816109370152818161100d015281816114bb015261160d0152600081816106930152818161098101528181610b800152818161106001526116c601526000818161042501528181610a4d01528181610b17015281816113c6015261171901526000818161046d01528181610cd401528181610df101528181610e5f0152818161112e01528181611353015281816114df01526116f8015261230f6000f3fe6080604052600436106101185760003560e01c80638d4e4083116100a0578063bf6896eb11610064578063bf6896eb14610367578063c341853f14610390578063d0e30db0146103bb578063e1f6c098146103c5578063f5660660146103f057610158565b80638d4e4083146102a457806395ee1221146102cf578063978bbdb9146102fa57806398f896dd14610325578063a58541231461033c57610158565b806328f371aa116100e757806328f371aa146101f55780633094ac1b1461022057806358a687ec1461024b5780635c8cf750146102625780637150d8ae1461027957610158565b806308551a531461015d5780630ab55d0b1461018857806312424e3f146101b357806316ff7c15146101ca57610158565b36610158576040517f08c379a000000000000000000000000000000000000000000000000000000000815260040161014f90611835565b60405180910390fd5b600080fd5b34801561016957600080fd5b50610172610423565b60405161017f9190611896565b60405180910390f35b34801561019457600080fd5b5061019d610447565b6040516101aa91906118ca565b60405180910390f35b3480156101bf57600080fd5b506101c861046b565b005b3480156101d657600080fd5b506101df61065a565b6040516101ec9190611900565b60405180910390f35b34801561020157600080fd5b5061020a61066d565b6040516102179190611900565b60405180910390f35b34801561022c57600080fd5b5061023561067e565b6040516102429190611900565b60405180910390f35b34801561025757600080fd5b50610260610691565b005b34801561026e57600080fd5b50610277610b7e565b005b34801561028557600080fd5b5061028e610def565b60405161029b9190611896565b60405180910390f35b3480156102b057600080fd5b506102b9610e13565b6040516102c69190611900565b60405180910390f35b3480156102db57600080fd5b506102e4610e26565b6040516102f19190611900565b60405180910390f35b34801561030657600080fd5b5061030f610e39565b60405161031c9190611934565b60405180910390f35b34801561033157600080fd5b5061033a610e5d565b005b34801561034857600080fd5b50610351611249565b60405161035e9190611934565b60405180910390f35b34801561037357600080fd5b5061038e60048036038101906103899190611980565b61124f565b005b34801561039c57600080fd5b506103a56114b9565b6040516103b29190611934565b60405180910390f35b6103c36114dd565b005b3480156103d157600080fd5b506103da6116c4565b6040516103e79190611896565b60405180910390f35b3480156103fc57600080fd5b506104056116e8565b60405161041a999897969594939291906119ad565b60405180910390f35b7f000000000000000000000000000000000000000000000000000000000000000081565b7f000000000000000000000000000000000000000000000000000000000000000081565b7f000000000000000000000000000000000000000000000000000000000000000073ffffffffffffffffffffffffffffffffffffffff163373ffffffffffffffffffffffffffffffffffffffff16146104f9576040517f08c379a00000000000000000000000000000000000000000000000000000000081526004016104f090611a86565b60405180910390fd5b600060019054906101000a900460ff1615610549576040517f08c379a000000000000000000000000000000000000000000000000000000000815260040161054090611af2565b60405180910390fd5b600060029054906101000a900460ff1615610599576040517f08c379a000000000000000000000000000000000000000000000000000000000815260040161059090611b5e565b60405180910390fd5b7f000000000000000000000000000000000000000000000000000000000000000047146105fb576040517f08c379a00000000000000000000000000000000000000000000000000000000081526004016105f290611bca565b60405180910390fd5b60016000806101000a81548160ff0219169083151502179055503373ffffffffffffffffffffffffffffffffffffffff167f5d91bd0cecc45fef102af61de92c5462fadc884a5ce9d21c15e8a85198f2349e60405160405180910390a2565b600260019054906101000a900460ff1681565b60008054906101000a900460ff1681565b600260009054906101000a900460ff1681565b7f000000000000000000000000000000000000000000000000000000000000000073ffffffffffffffffffffffffffffffffffffffff163373ffffffffffffffffffffffffffffffffffffffff161461071f576040517f08c379a000000000000000000000000000000000000000000000000000000000815260040161071690611c36565b60405180910390fd5b600060019054906101000a900460ff161561076f576040517f08c379a000000000000000000000000000000000000000000000000000000000815260040161076690611af2565b60405180910390fd5b600060029054906101000a900460ff16156107bf576040517f08c379a00000000000000000000000000000000000000000000000000000000081526004016107b690611b5e565b60405180910390fd5b60008054906101000a900460ff1661080c576040517f08c379a000000000000000000000000000000000000000000000000000000000815260040161080390611ca2565b60405180910390fd5b7f0000000000000000000000000000000000000000000000000000000000000000471461086e576040517f08c379a000000000000000000000000000000000000000000000000000000000815260040161086590611d0e565b60405180910390fd5b600260009054906101000a900460ff1680156108965750600260019054906101000a900460ff165b6108d5576040517f08c379a00000000000000000000000000000000000000000000000000000000081526004016108cc90611d7a565b60405180910390fd5b60006127107f00000000000000000000000000000000000000000000000000000000000000007f00000000000000000000000000000000000000000000000000000000000000006109269190611dc9565b6109309190611e3a565b90506000817f00000000000000000000000000000000000000000000000000000000000000006109609190611e6b565b90506001600060016101000a81548160ff02191690831515021790555060007f000000000000000000000000000000000000000000000000000000000000000073ffffffffffffffffffffffffffffffffffffffff16836040516109c390611ed0565b60006040518083038185875af1925050503d8060008114610a00576040519150601f19603f3d011682016040523d82523d6000602084013e610a05565b606091505b5050905080610a49576040517f08c379a0000000000000000000000000000000000000000000000000000000008152600401610a4090611f31565b60405180910390fd5b60007f000000000000000000000000000000000000000000000000000000000000000073ffffffffffffffffffffffffffffffffffffffff1683604051610a8f90611ed0565b60006040518083038185875af1925050503d8060008114610acc576040519150601f19603f3d011682016040523d82523d6000602084013e610ad1565b606091505b5050905080610b15576040517f08c379a0000000000000000000000000000000000000000000000000000000008152600401610b0c90611f9d565b60405180910390fd5b7f000000000000000000000000000000000000000000000000000000000000000073ffffffffffffffffffffffffffffffffffffffff167f8e500951de09bcc6854e88c0810bafb819503505895751e657a92df6578d3d9960405160405180910390a250505050565b7f000000000000000000000000000000000000000000000000000000000000000073ffffffffffffffffffffffffffffffffffffffff163373ffffffffffffffffffffffffffffffffffffffff1614610c0c576040517f08c379a0000000000000000000000000000000000000000000000000000000008152600401610c0390611c36565b60405180910390fd5b600060019054906101000a900460ff1615610c5c576040517f08c379a0000000000000000000000000000000000000000000000000000000008152600401610c5390611af2565b60405180910390fd5b600060029054906101000a900460ff1615610cac576040517f08c379a0000000000000000000000000000000000000000000000000000000008152600401610ca390611b5e565b60405180910390fd5b6001600060026101000a81548160ff0219169083151502179055506000471115610d9e5760007f000000000000000000000000000000000000000000000000000000000000000073ffffffffffffffffffffffffffffffffffffffff1647604051610d1690611ed0565b60006040518083038185875af1925050503d8060008114610d53576040519150601f19603f3d011682016040523d82523d6000602084013e610d58565b606091505b5050905080610d9c576040517f08c379a0000000000000000000000000000000000000000000000000000000008152600401610d9390612009565b60405180910390fd5b505b3373ffffffffffffffffffffffffffffffffffffffff167f36ea5cd5608625e789af0282eecdb4eae1cb7c1cf6d0ec3f9a84f35be850260b6000604051610de5919061206e565b60405180910390a2565b7f000000000000000000000000000000000000000000000000000000000000000081565b600060019054906101000a900460ff1681565b600060029054906101000a900460ff1681565b7f000000000000000000000000000000000000000000000000000000000000000081565b7f000000000000000000000000000000000000000000000000000000000000000073ffffffffffffffffffffffffffffffffffffffff163373ffffffffffffffffffffffffffffffffffffffff1614610eeb576040517f08c379a0000000000000000000000000000000000000000000000000000000008152600401610ee290611a86565b60405180910390fd5b600060019054906101000a900460ff1615610f3b576040517f08c379a0000000000000000000000000000000000000000000000000000000008152600401610f3290611af2565b60405180910390fd5b600060029054906101000a900460ff1615610f8b576040517f08c379a0000000000000000000000000000000000000000000000000000000008152600401610f8290611b5e565b60405180910390fd5b600060015403610fd0576040517f08c379a0000000000000000000000000000000000000000000000000000000008152600401610fc7906120d5565b60405180910390fd5b6001600060026101000a81548160ff021916908315150217905550600062015180600154610ffe91906120f5565b42111561104357620186a060017f00000000000000000000000000000000000000000000000000000000000000006110369190611dc9565b6110409190611e3a565b90505b600081476110519190611e6b565b9050600082111561112a5760007f000000000000000000000000000000000000000000000000000000000000000073ffffffffffffffffffffffffffffffffffffffff16836040516110a290611ed0565b60006040518083038185875af1925050503d80600081146110df576040519150601f19603f3d011682016040523d82523d6000602084013e6110e4565b606091505b5050905080611128576040517f08c379a000000000000000000000000000000000000000000000000000000000815260040161111f90612175565b60405180910390fd5b505b60007f000000000000000000000000000000000000000000000000000000000000000073ffffffffffffffffffffffffffffffffffffffff168260405161117090611ed0565b60006040518083038185875af1925050503d80600081146111ad576040519150601f19603f3d011682016040523d82523d6000602084013e6111b2565b606091505b50509050806111f6576040517f08c379a00000000000000000000000000000000000000000000000000000000081526004016111ed90612009565b60405180910390fd5b3373ffffffffffffffffffffffffffffffffffffffff167f36ea5cd5608625e789af0282eecdb4eae1cb7c1cf6d0ec3f9a84f35be850260b8460405161123c9190611934565b60405180910390a2505050565b60015481565b600060019054906101000a900460ff161561129f576040517f08c379a000000000000000000000000000000000000000000000000000000000815260040161129690611af2565b60405180910390fd5b600060029054906101000a900460ff16156112ef576040517f08c379a00000000000000000000000000000000000000000000000000000000081526004016112e690611b5e565b60405180910390fd5b7f00000000000000000000000000000000000000000000000000000000000000008114611351576040517f08c379a0000000000000000000000000000000000000000000000000000000008152600401611348906121e1565b60405180910390fd5b7f000000000000000000000000000000000000000000000000000000000000000073ffffffffffffffffffffffffffffffffffffffff163373ffffffffffffffffffffffffffffffffffffffff16036113c4576001600260006101000a81548160ff021916908315150217905550611473565b7f000000000000000000000000000000000000000000000000000000000000000073ffffffffffffffffffffffffffffffffffffffff163373ffffffffffffffffffffffffffffffffffffffff1603611437576001600260016101000a81548160ff021916908315150217905550611472565b6040517f08c379a00000000000000000000000000000000000000000000000000000000081526004016114699061224d565b60405180910390fd5b5b3373ffffffffffffffffffffffffffffffffffffffff167f5cca47fc45be2c2c68100afd7cd2431116c0c535c159e4f6c7e63934cf9f7aad60405160405180910390a250565b7f000000000000000000000000000000000000000000000000000000000000000081565b7f000000000000000000000000000000000000000000000000000000000000000073ffffffffffffffffffffffffffffffffffffffff163373ffffffffffffffffffffffffffffffffffffffff161461156b576040517f08c379a000000000000000000000000000000000000000000000000000000000815260040161156290611a86565b60405180910390fd5b600060019054906101000a900460ff16156115bb576040517f08c379a00000000000000000000000000000000000000000000000000000000081526004016115b290611af2565b60405180910390fd5b600060029054906101000a900460ff161561160b576040517f08c379a000000000000000000000000000000000000000000000000000000000815260040161160290611b5e565b60405180910390fd5b7f0000000000000000000000000000000000000000000000000000000000000000341461166d576040517f08c379a0000000000000000000000000000000000000000000000000000000008152600401611664906122b9565b60405180910390fd5b426001819055503373ffffffffffffffffffffffffffffffffffffffff167f2da466a7b24304f47e87fa2e1e5a81b9831ce54fec19055ce277ca2f39ba42c4346040516116ba9190611934565b60405180910390a2565b7f000000000000000000000000000000000000000000000000000000000000000081565b60008060008060008060008060007f00000000000000000000000000000000000000000000000000000000000000007f000000000000000000000000000000000000000000000000000000000000000047600060019054906101000a900460ff16600060029054906101000a900460ff167f0000000000000000000000000000000000000000000000000000000000000000600260009054906101000a900460ff16600260019054906101000a900460ff167f0000000000000000000000000000000000000000000000000000000000000000985098509850985098509850985098509850909192939495969798565b600082825260208201905092915050565b7f53656e6420766961206465706f7369742829206f6e6c79000000000000000000600082015250565b600061181f6017836117d8565b915061182a826117e9565b602082019050919050565b6000602082019050818103600083015261184e81611812565b9050919050565b600073ffffffffffffffffffffffffffffffffffffffff82169050919050565b600061188082611855565b9050919050565b61189081611875565b82525050565b60006020820190506118ab6000830184611887565b92915050565b6000819050919050565b6118c4816118b1565b82525050565b60006020820190506118df60008301846118bb565b92915050565b60008115159050919050565b6118fa816118e5565b82525050565b600060208201905061191560008301846118f1565b92915050565b6000819050919050565b61192e8161191b565b82525050565b60006020820190506119496000830184611925565b92915050565b600080fd5b61195d816118b1565b811461196857600080fd5b50565b60008135905061197a81611954565b92915050565b6000602082840312156119965761199561194f565b5b60006119a48482850161196b565b91505092915050565b6000610120820190506119c3600083018c611887565b6119d0602083018b611887565b6119dd604083018a611925565b6119ea60608301896118f1565b6119f760808301886118f1565b611a0460a08301876118bb565b611a1160c08301866118f1565b611a1e60e08301856118f1565b611a2c610100830184611925565b9a9950505050505050505050565b7f4f6e6c792062757965722063616e2063616c6c20746869730000000000000000600082015250565b6000611a706018836117d8565b9150611a7b82611a3a565b602082019050919050565b60006020820190508181036000830152611a9f81611a63565b9050919050565b7f5472616e73616374696f6e20616c72656164792066696e616c697a6564000000600082015250565b6000611adc601d836117d8565b9150611ae782611aa6565b602082019050919050565b60006020820190508181036000830152611b0b81611acf565b9050919050565b7f5472616e73616374696f6e2063616e63656c6c65640000000000000000000000600082015250565b6000611b486015836117d8565b9150611b5382611b12565b602082019050919050565b60006020820190508181036000830152611b7781611b3b565b9050919050565b7f457363726f77206e6f742066756c6c792066756e646564000000000000000000600082015250565b6000611bb46017836117d8565b9150611bbf82611b7e565b602082019050919050565b60006020820190508181036000830152611be381611ba7565b9050919050565b7f4f6e6c7920657363726f77206167656e742063616e2063616c6c207468697300600082015250565b6000611c20601f836117d8565b9150611c2b82611bea565b602082019050919050565b60006020820190508181036000830152611c4f81611c13565b9050919050565b7f417070726f76616c207265717569726564000000000000000000000000000000600082015250565b6000611c8c6011836117d8565b9150611c9782611c56565b602082019050919050565b60006020820190508181036000830152611cbb81611c7f565b9050919050565b7f496e73756666696369656e7420657363726f772062616c616e63650000000000600082015250565b6000611cf8601b836117d8565b9150611d0382611cc2565b602082019050919050565b60006020820190508181036000830152611d2781611ceb565b9050919050565b7f426f74682070617274696573206d757374207369676e2061677265656d656e74600082015250565b6000611d646020836117d8565b9150611d6f82611d2e565b602082019050919050565b60006020820190508181036000830152611d9381611d57565b9050919050565b7f4e487b7100000000000000000000000000000000000000000000000000000000600052601160045260246000fd5b6000611dd48261191b565b9150611ddf8361191b565b9250828202611ded8161191b565b91508282048414831517611e0457611e03611d9a565b5b5092915050565b7f4e487b7100000000000000000000000000000000000000000000000000000000600052601260045260246000fd5b6000611e458261191b565b9150611e508361191b565b925082611e6057611e5f611e0b565b5b828204905092915050565b6000611e768261191b565b9150611e818361191b565b9250828203905081811115611e9957611e98611d9a565b5b92915050565b600081905092915050565b50565b6000611eba600083611e9f565b9150611ec582611eaa565b600082019050919050565b6000611edb82611ead565b9150819050919050565b7f466565207472616e73666572206661696c656400000000000000000000000000600082015250565b6000611f1b6013836117d8565b9150611f2682611ee5565b602082019050919050565b60006020820190508181036000830152611f4a81611f0e565b9050919050565b7f5472616e7366657220746f2073656c6c6572206661696c656400000000000000600082015250565b6000611f876019836117d8565b9150611f9282611f51565b602082019050919050565b60006020820190508181036000830152611fb681611f7a565b9050919050565b7f526566756e6420746f206275796572206661696c656400000000000000000000600082015250565b6000611ff36016836117d8565b9150611ffe82611fbd565b602082019050919050565b6000602082019050818103600083015261202281611fe6565b9050919050565b6000819050919050565b6000819050919050565b600061205861205361204e84612029565b612033565b61191b565b9050919050565b6120688161203d565b82525050565b6000602082019050612083600083018461205f565b92915050565b7f4465706f736974206e6f74206d61646500000000000000000000000000000000600082015250565b60006120bf6010836117d8565b91506120ca82612089565b602082019050919050565b600060208201905081810360008301526120ee816120b2565b9050919050565b60006121008261191b565b915061210b8361191b565b925082820190508082111561212357612122611d9a565b5b92915050565b7f50656e616c7479207472616e73666572206661696c6564000000000000000000600082015250565b600061215f6017836117d8565b915061216a82612129565b602082019050919050565b6000602082019050818103600083015261218e81612152565b9050919050565b7f41677265656d656e742068617368206d69736d61746368000000000000000000600082015250565b60006121cb6017836117d8565b91506121d682612195565b602082019050919050565b600060208201905081810360008301526121fa816121be565b9050919050565b7f4e6f7420617574686f72697a656420746f207369676e00000000000000000000600082015250565b60006122376016836117d8565b915061224282612201565b602082019050919050565b600060208201905081810360008301526122668161222a565b9050919050565b7f496e636f7272656374206465706f73697420616d6f756e740000000000000000600082015250565b60006122a36018836117d8565b91506122ae8261226d565b602082019050919050565b600060208201905081810360008301526122d281612296565b905091905056fea264697066735822122081d8072791464daecc0e26c8a9cca0d343d5fd4415e18bba0e51f3c07bc80a2b64736f6c634300081c0033a2646970667358221220b01828f0565014f8743c410725c1fb6f7e572de88b149caf65ea3a7ece44ef6464736f6c634300081c0033",
  "linkReferences": {},
  "deployedLinkReferences": {}
}