{
  "_format": "hh-sol-artifact-1",
  "contractName": "MultiEscrowManager",
  "sourceName": "contracts/MultiEscrowManager.sol",
  "abi": [
    {
      "anonymous": false,
      "inputs": [
        {
          "indexed": false,
          "internalType": "address",
          "name": "previousAdmin",
          "type": "address"
        },
        {
          "indexed": false,
          "internalType": "address",
          "name": "newAdmin",
          "type": "address"
        }
      ],
      "name": "AdminChanged",
      "type": "event"
    },
    {
      "anonymous": false,
      "inputs": [
        {
          "indexed": true,
          "internalType": "address",
          "name": "beacon",
          "type": "address"
        }
      ],
      "name": "BeaconUpgraded",
      "type": "event"
    },
    {
      "anonymous": false,
      "inputs": [
        {
          "indexed": false,
          "internalType": "uint256",
          "name": "newCancelFeeBps",
          "type": "uint256"
        }
      ],
      "name": "CancelFeeUpdated",
      "type": "event"
    },
    {
      "anonymous": false,
      "inputs": [
        {
          "indexed": true,
          "internalType": "uint256",
          "name": "id",
          "type": "uint256"
        },
        {
          "indexed": false,
          "internalType": "address",
          "name": "winner",
          "type": "address"
        }
      ],
      "name": "DisputeResolved",
      "type": "event"
    },
    {
      "anonymous": false,
      "inputs": [
        {
          "indexed": true,
          "internalType": "uint256",
          "name": "id",
          "type": "uint256"
        },
        {
          "indexed": true,
          "internalType": "address",
          "name": "buyer",
          "type": "address"
        },
        {
          "indexed": true,
          "internalType": "address",
          "name": "seller",
          "type": "address"
        },
        {
          "indexed": false,
          "internalType": "uint256",
          "name": "amount",
          "type": "uint256"
        },
        {
          "indexed": false,
          "internalType": "uint256",
          "name": "fee",
          "type": "uint256"
        }
      ],
      "name": "EscrowCreated",
      "type": "event"
    },
    {
      "anonymous": false,
      "inputs": [
        {
          "indexed": true,
          "internalType": "uint256",
          "name": "id",
          "type": "uint256"
        }
      ],
      "name": "EscrowDisputed",
      "type": "event"
    },
    {
      "anonymous": false,
      "inputs": [
        {
          "indexed": true,
          "internalType": "uint256",
          "name": "id",
          "type": "uint256"
        },
        {
          "indexed": false,
          "internalType": "uint256",
          "name": "fee",
          "type": "uint256"
        }
      ],
      "name": "EscrowRefunded",
      "type": "event"
    },
    {
      "anonymous": false,
      "inputs": [
        {
          "indexed": true,
          "internalType": "uint256",
          "name": "id",
          "type": "uint256"
        }
      ],
      "name": "FundsApproved",
      "type": "event"
    },
    {
      "anonymous": false,
      "inputs": [
        {
          "indexed": true,
          "internalType": "uint256",
          "name": "id",
          "type": "uint256"
        }
      ],
      "name": "FundsReleased",
      "type": "event"
    },
    {
      "anonymous": false,
      "inputs": [
        {
          "indexed": false,
          "internalType": "uint8",
          "name": "version",
          "type": "uint8"
        }
      ],
      "name": "Initialized",
      "type": "event"
    },
    {
      "anonymous": false,
      "inputs": [
        {
          "indexed": true,
          "internalType": "address",
          "name": "previousOwner",
          "type": "address"
        },
        {
          "indexed": true,
          "internalType": "address",
          "name": "newOwner",
          "type": "address"
        }
      ],
      "name": "OwnershipTransferred",
      "type": "event"
    },
    {
      "anonymous": false,
      "inputs": [
        {
          "indexed": false,
          "internalType": "uint256",
          "name": "newFeeBps",
          "type": "uint256"
        }
      ],
      "name": "PlatformFeeUpdated",
      "type": "event"
    },
    {
      "anonymous": false,
      "inputs": [
        {
          "indexed": false,
          "internalType": "bytes32",
          "name": "newHash",
          "type": "bytes32"
        }
      ],
      "name": "TermsUpdated",
      "type": "event"
    },
    {
      "anonymous": false,
      "inputs": [
        {
          "indexed": true,
          "internalType": "address",
          "name": "implementation",
          "type": "address"
        }
      ],
      "name": "Upgraded",
      "type": "event"
    },
    {
      "inputs": [],
      "name": "CANCEL_WINDOW",
      "outputs": [
        {
          "internalType": "uint256",
          "name": "",
          "type": "uint256"
        }
      ],
      "stateMutability": "view",
      "type": "function"
    },
    {
      "inputs": [],
      "name": "MAX_CANCEL_FEE_BPS",
      "outputs": [
        {
          "internalType": "uint256",
          "name": "",
          "type": "uint256"
        }
      ],
      "stateMutability": "view",
      "type": "function"
    },
    {
      "inputs": [
        {
          "internalType": "bytes32",
          "name": "_hash",
          "type": "bytes32"
        }
      ],
      "name": "acceptTerms",
      "outputs": [],
      "stateMutability": "nonpayable",
      "type": "function"
    },
    {
      "inputs": [
        {
          "internalType": "address",
          "name": "",
          "type": "address"
        }
      ],
      "name": "acceptedTerms",
      "outputs": [
        {
          "internalType": "bytes32",
          "name": "",
          "type": "bytes32"
        }
      ],
      "stateMutability": "view",
      "type": "function"
    },
    {
      "inputs": [
        {
          "internalType": "uint256",
          "name": "id",
          "type": "uint256"
        }
      ],
      "name": "approveEscrow",
      "outputs": [],
      "stateMutability": "nonpayable",
      "type": "function"
    },
    {
      "inputs": [],
      "name": "cancelFeeBps",
      "outputs": [
        {
          "internalType": "uint256",
          "name": "",
          "type": "uint256"
        }
      ],
      "stateMutability": "view",
      "type": "function"
    },
    {
      "inputs": [
        {
          "internalType": "address payable",
          "name": "_seller",
          "type": "address"
        },
        {
          "internalType": "uint256",
          "name": "_deadline",
          "type": "uint256"
        }
      ],
      "name": "createEscrow",
      "outputs": [],
      "stateMutability": "payable",
      "type": "function"
    },
    {
      "inputs": [
        {
          "internalType": "uint256",
          "name": "id",
          "type": "uint256"
        }
      ],
      "name": "disputeEscrow",
      "outputs": [],
      "stateMutability": "nonpayable",
      "type": "function"
    },
    {
      "inputs": [],
      "name": "escrowCount",
      "outputs": [
        {
          "internalType": "uint256",
          "name": "",
          "type": "uint256"
        }
      ],
      "stateMutability": "view",
      "type": "function"
    },
    {
      "inputs": [
        {
          "internalType": "uint256",
          "name": "",
          "type": "uint256"
        }
      ],
      "name": "escrows",
      "outputs": [
        {
          "internalType": "address payable",
          "name": "buyer",
          "type": "address"
        },
        {
          "internalType": "address payable",
          "name": "seller",
          "type": "address"
        },
        {
          "internalType": "uint256",
          "name": "amount",
          "type": "uint256"
        },
        {
          "internalType": "uint256",
          "name": "deadline",
          "type": "uint256"
        },
        {
          "internalType": "uint256",
          "name": "createdAt",
          "type": "uint256"
        },
        {
          "internalType": "enum MultiEscrowManager.EscrowStatus",
          "name": "status",
          "type": "uint8"
        }
      ],
      "stateMutability": "view",
      "type": "function"
    },
    {
      "inputs": [],
      "name": "feeCollector",
      "outputs": [
        {
          "internalType": "address",
          "name": "",
          "type": "address"
        }
      ],
      "stateMutability": "view",
      "type": "function"
    },
    {
      "inputs": [
        {
          "internalType": "address",
          "name": "_feeCollector",
          "type": "address"
        },
        {
          "internalType": "uint256",
          "name": "_platformFeeBps",
          "type": "uint256"
        },
        {
          "internalType": "uint256",
          "name": "_cancelFeeBps",
          "type": "uint256"
        },
        {
          "internalType": "bytes32",
          "name": "_termsHash",
          "type": "bytes32"
        }
      ],
      "name": "initialize",
      "outputs": [],
      "stateMutability": "nonpayable",
      "type": "function"
    },
    {
      "inputs": [],
      "name": "owner",
      "outputs": [
        {
          "internalType": "address",
          "name": "",
          "type": "address"
        }
      ],
      "stateMutability": "view",
      "type": "function"
    },
    {
      "inputs": [],
      "name": "platformFeeBps",
      "outputs": [
        {
          "internalType": "uint256",
          "name": "",
          "type": "uint256"
        }
      ],
      "stateMutability": "view",
      "type": "function"
    },
    {
      "inputs": [],
      "name": "proxiableUUID",
      "outputs": [
        {
          "internalType": "bytes32",
          "name": "",
          "type": "bytes32"
        }
      ],
      "stateMutability": "view",
      "type": "function"
    },
    {
      "inputs": [
        {
          "internalType": "uint256",
          "name": "id",
          "type": "uint256"
        }
      ],
      "name": "refundEscrow",
      "outputs": [],
      "stateMutability": "nonpayable",
      "type": "function"
    },
    {
      "inputs": [
        {
          "internalType": "uint256",
          "name": "id",
          "type": "uint256"
        }
      ],
      "name": "releaseEscrow",
      "outputs": [],
      "stateMutability": "nonpayable",
      "type": "function"
    },
    {
      "inputs": [],
      "name": "renounceOwnership",
      "outputs": [],
      "stateMutability": "nonpayable",
      "type": "function"
    },
    {
      "inputs": [
        {
          "internalType": "uint256",
          "name": "id",
          "type": "uint256"
        },
        {
          "internalType": "address",
          "name": "winner",
          "type": "address"
        }
      ],
      "name": "resolveDispute",
      "outputs": [],
      "stateMutability": "nonpayable",
      "type": "function"
    },
    {
      "inputs": [],
      "name": "termsHash",
      "outputs": [
        {
          "internalType": "bytes32",
          "name": "",
          "type": "bytes32"
        }
      ],
      "stateMutability": "view",
      "type": "function"
    },
    {
      "inputs": [
        {
          "internalType": "address",
          "name": "newOwner",
          "type": "address"
        }
      ],
      "name": "transferOwnership",
      "outputs": [],
      "stateMutability": "nonpayable",
      "type": "function"
    },
    {
      "inputs": [
        {
          "internalType": "uint256",
          "name": "newBps",
          "type": "uint256"
        }
      ],
      "name": "updateCancelFee",
      "outputs": [],
      "stateMutability": "nonpayable",
      "type": "function"
    },
    {
      "inputs": [
        {
          "internalType": "uint256",
          "name": "newBps",
          "type": "uint256"
        }
      ],
      "name": "updatePlatformFee",
      "outputs": [],
      "stateMutability": "nonpayable",
      "type": "function"
    },
    {
      "inputs": [
        {
          "internalType": "bytes32",
          "name": "newHash",
          "type": "bytes32"
        }
      ],
      "name": "updateTermsHash",
      "outputs": [],
      "stateMutability": "nonpayable",
      "type": "function"
    },
    {
      "inputs": [
        {
          "internalType": "address",
          "name": "newImplementation",
          "type": "address"
        }
      ],
      "name": "upgradeTo",
      "outputs": [],
      "stateMutability": "nonpayable",
      "type": "function"
    },
    {
      "inputs": [
        {
          "internalType": "address",
          "name": "newImplementation",
          "type": "address"
        },
        {
          "internalType": "bytes",
          "name": "data",
          "type": "bytes"
        }
      ],
      "name": "upgradeToAndCall",
      "outputs": [],
      "stateMutability": "payable",
      "type": "function"
    }
  ],
  "bytecode": "0x60a06040523073ffffffffffffffffffffffffffffffffffffffff1660809073ffffffffffffffffffffffffffffffffffffffff1681525034801561004357600080fd5b50608051613a4061007b60003960008181610d5101528181610ddf01528181611231015281816112bf015261136f0152613a406000f3fe6080604052600436106101815760003560e01c806375c79f28116100d1578063b563153c1161008a578063c701ffeb11610064578063c701ffeb1461051b578063df54df9114610546578063ed65316414610571578063f2fde38b1461059a57610181565b8063b563153c1461049e578063bfb5b90e146104c7578063c415b95c146104f057610181565b806375c79f28146103a257806377736471146103cd5780638da5cb5b146103f657806390a492e514610421578063aa0b59881461044a578063b311d9fd1461047357610181565b80633659cfe61161013e57806352d1902d1161011857806352d1902d1461030c5780635fe6b4d014610337578063675ac67a14610360578063715018a61461038b57610181565b80633659cfe6146102ab5780634614874e146102d45780634f1ef286146102f057610181565b8063012f52ee1461018657806303fce7ef146101c85780630e0d7f07146101f15780630e33599d1461022e57806322dcd13e14610257578063356f9dfd14610282575b600080fd5b34801561019257600080fd5b506101ad60048036038101906101a891906125ce565b6105c3565b6040516101bf969594939291906126c2565b60405180910390f35b3480156101d457600080fd5b506101ef60048036038101906101ea91906125ce565b61064d565b005b3480156101fd57600080fd5b5061021860048036038101906102139190612761565b610842565b60405161022591906127a7565b60405180910390f35b34801561023a57600080fd5b50610255600480360381019061025091906127c2565b61085b565b005b34801561026357600080fd5b5061026c6109fa565b6040516102799190612802565b60405180910390f35b34801561028e57600080fd5b506102a960048036038101906102a491906125ce565b610a00565b005b3480156102b757600080fd5b506102d260048036038101906102cd9190612761565b610d4f565b005b6102ee60048036038101906102e99190612849565b610ed7565b005b61030a600480360381019061030591906129cf565b61122f565b005b34801561031857600080fd5b5061032161136b565b60405161032e91906127a7565b60405180910390f35b34801561034357600080fd5b5061035e60048036038101906103599190612a57565b611424565b005b34801561036c57600080fd5b506103756115cc565b6040516103829190612802565b60405180910390f35b34801561039757600080fd5b506103a06115d2565b005b3480156103ae57600080fd5b506103b76115e6565b6040516103c49190612802565b60405180910390f35b3480156103d957600080fd5b506103f460048036038101906103ef91906125ce565b6115ed565b005b34801561040257600080fd5b5061040b61167b565b6040516104189190612acd565b60405180910390f35b34801561042d57600080fd5b5061044860048036038101906104439190612ae8565b6116a5565b005b34801561045657600080fd5b50610471600480360381019061046c91906125ce565b611731565b005b34801561047f57600080fd5b506104886117bf565b60405161049591906127a7565b60405180910390f35b3480156104aa57600080fd5b506104c560048036038101906104c091906125ce565b6117c5565b005b3480156104d357600080fd5b506104ee60048036038101906104e99190612ae8565b6119f2565b005b3480156104fc57600080fd5b50610505611a3b565b6040516105129190612acd565b60405180910390f35b34801561052757600080fd5b50610530611a61565b60405161053d9190612802565b60405180910390f35b34801561055257600080fd5b5061055b611a67565b6040516105689190612802565b60405180910390f35b34801561057d57600080fd5b50610598600480360381019061059391906125ce565b611a6d565b005b3480156105a657600080fd5b506105c160048036038101906105bc9190612761565b611cec565b005b6101006020528060005260406000206000915090508060000160009054906101000a900473ffffffffffffffffffffffffffffffffffffffff16908060010160009054906101000a900473ffffffffffffffffffffffffffffffffffffffff16908060020154908060030154908060040154908060050160009054906101000a900460ff16905086565b803373ffffffffffffffffffffffffffffffffffffffff16610100600083815260200190815260200160002060000160009054906101000a900473ffffffffffffffffffffffffffffffffffffffff1673ffffffffffffffffffffffffffffffffffffffff16146106f3576040517f08c379a00000000000000000000000000000000000000000000000000000000081526004016106ea90612b72565b60405180910390fd5b81600081118015610706575060fb548111155b610745576040517f08c379a000000000000000000000000000000000000000000000000000000000815260040161073c90612bde565b60405180910390fd5b600060048111156107595761075861264b565b5b610100600085815260200190815260200160002060050160009054906101000a900460ff1660048111156107905761078f61264b565b5b146107d0576040517f08c379a00000000000000000000000000000000000000000000000000000000081526004016107c790612c4a565b60405180910390fd5b6001610100600085815260200190815260200160002060050160006101000a81548160ff0219169083600481111561080b5761080a61264b565b5b0217905550827f0649d8e40524587f74eb95a2bc1f96a325cbeb7657bf29340a3c7672c11d874660405160405180910390a2505050565b6101016020528060005260406000206000915090505481565b610863611d6f565b81600081118015610876575060fb548111155b6108b5576040517f08c379a00000000000000000000000000000000000000000000000000000000081526004016108ac90612bde565b60405180910390fd5b6000610100600085815260200190815260200160002090506004808111156108e0576108df61264b565b5b8160050160009054906101000a900460ff1660048111156109045761090361264b565b5b14610944576040517f08c379a000000000000000000000000000000000000000000000000000000000815260040161093b90612cb6565b60405180910390fd5b60028160050160006101000a81548160ff0219169083600481111561096c5761096b61264b565b5b02179055508273ffffffffffffffffffffffffffffffffffffffff166108fc82600201549081150290604051600060405180830381858888f193505050501580156109bb573d6000803e3d6000fd5b50837ff77ceb5e091d2da041bc760667f9d5fe7a756949eaf29250ad0e60ca6f4c27d9846040516109ec9190612acd565b60405180910390a250505050565b60fc5481565b80600081118015610a13575060fb548111155b610a52576040517f08c379a0000000000000000000000000000000000000000000000000000000008152600401610a4990612bde565b60405180910390fd5b813373ffffffffffffffffffffffffffffffffffffffff16610100600083815260200190815260200160002060000160009054906101000a900473ffffffffffffffffffffffffffffffffffffffff1673ffffffffffffffffffffffffffffffffffffffff1614610af8576040517f08c379a0000000000000000000000000000000000000000000000000000000008152600401610aef90612b72565b60405180910390fd5b60006101006000858152602001908152602001600020905060006004811115610b2457610b2361264b565b5b8160050160009054906101000a900460ff166004811115610b4857610b4761264b565b5b14610b88576040517f08c379a0000000000000000000000000000000000000000000000000000000008152600401610b7f90612c4a565b60405180910390fd5b6203f4808160040154610b9b9190612d05565b421115610bdd576040517f08c379a0000000000000000000000000000000000000000000000000000000008152600401610bd490612d85565b60405180910390fd5b60038160050160006101000a81548160ff02191690836004811115610c0557610c0461264b565b5b0217905550600061271060fd548360020154610c219190612da5565b610c2b9190612e16565b905060ff60009054906101000a900473ffffffffffffffffffffffffffffffffffffffff1673ffffffffffffffffffffffffffffffffffffffff166108fc829081150290604051600060405180830381858888f19350505050158015610c95573d6000803e3d6000fd5b508160000160009054906101000a900473ffffffffffffffffffffffffffffffffffffffff1673ffffffffffffffffffffffffffffffffffffffff166108fc828460020154610ce49190612e47565b9081150290604051600060405180830381858888f19350505050158015610d0f573d6000803e3d6000fd5b50847f8e09fed7623ad9f8d5a701dd9f3233197147d0043c564dfb1a6c0023ab568c2082604051610d409190612802565b60405180910390a25050505050565b7f000000000000000000000000000000000000000000000000000000000000000073ffffffffffffffffffffffffffffffffffffffff163073ffffffffffffffffffffffffffffffffffffffff1603610ddd576040517f08c379a0000000000000000000000000000000000000000000000000000000008152600401610dd490612eed565b60405180910390fd5b7f000000000000000000000000000000000000000000000000000000000000000073ffffffffffffffffffffffffffffffffffffffff16610e1c611ded565b73ffffffffffffffffffffffffffffffffffffffff1614610e72576040517f08c379a0000000000000000000000000000000000000000000000000000000008152600401610e6990612f7f565b60405180910390fd5b610e7b81611e44565b610ed481600067ffffffffffffffff811115610e9a57610e996128a4565b5b6040519080825280601f01601f191660200182016040528015610ecc5781602001600182028036833780820191505090505b506000611e4f565b50565b610edf611fbd565b60003411610f22576040517f08c379a0000000000000000000000000000000000000000000000000000000008152600401610f1990612feb565b60405180910390fd5b60fe5461010160003373ffffffffffffffffffffffffffffffffffffffff1673ffffffffffffffffffffffffffffffffffffffff1681526020019081526020016000205414610fa6576040517f08c379a0000000000000000000000000000000000000000000000000000000008152600401610f9d90613057565b60405180910390fd5b60fb6000815480929190610fb990613077565b9190505550600061271060fc5434610fd19190612da5565b610fdb9190612e16565b905060008134610feb9190612e47565b90506040518060c001604052803373ffffffffffffffffffffffffffffffffffffffff1681526020018573ffffffffffffffffffffffffffffffffffffffff168152602001828152602001848152602001428152602001600060048111156110565761105561264b565b5b815250610100600060fb54815260200190815260200160002060008201518160000160006101000a81548173ffffffffffffffffffffffffffffffffffffffff021916908373ffffffffffffffffffffffffffffffffffffffff16021790555060208201518160010160006101000a81548173ffffffffffffffffffffffffffffffffffffffff021916908373ffffffffffffffffffffffffffffffffffffffff16021790555060408201518160020155606082015181600301556080820151816004015560a08201518160050160006101000a81548160ff021916908360048111156111465761114561264b565b5b021790555090505060ff60009054906101000a900473ffffffffffffffffffffffffffffffffffffffff1673ffffffffffffffffffffffffffffffffffffffff166108fc839081150290604051600060405180830381858888f193505050501580156111b6573d6000803e3d6000fd5b508373ffffffffffffffffffffffffffffffffffffffff163373ffffffffffffffffffffffffffffffffffffffff1660fb547f59e4b8728799382406714f1c57de5c893d2772f9a8bf9950c5afe4397e64865484866040516112199291906130bf565b60405180910390a4505061122b61200c565b5050565b7f000000000000000000000000000000000000000000000000000000000000000073ffffffffffffffffffffffffffffffffffffffff163073ffffffffffffffffffffffffffffffffffffffff16036112bd576040517f08c379a00000000000000000000000000000000000000000000000000000000081526004016112b490612eed565b60405180910390fd5b7f000000000000000000000000000000000000000000000000000000000000000073ffffffffffffffffffffffffffffffffffffffff166112fc611ded565b73ffffffffffffffffffffffffffffffffffffffff1614611352576040517f08c379a000000000000000000000000000000000000000000000000000000000815260040161134990612f7f565b60405180910390fd5b61135b82611e44565b61136782826001611e4f565b5050565b60007f000000000000000000000000000000000000000000000000000000000000000073ffffffffffffffffffffffffffffffffffffffff163073ffffffffffffffffffffffffffffffffffffffff16146113fb576040517f08c379a00000000000000000000000000000000000000000000000000000000081526004016113f29061315a565b60405180910390fd5b7f360894a13ba1a3210667c828492db98dca3e2076cc3735a920a3ca505d382bbc60001b905090565b60008060019054906101000a900460ff161590508080156114555750600160008054906101000a900460ff1660ff16105b80611482575061146430612016565b1580156114815750600160008054906101000a900460ff1660ff16145b5b6114c1576040517f08c379a00000000000000000000000000000000000000000000000000000000081526004016114b8906131ec565b60405180910390fd5b60016000806101000a81548160ff021916908360ff16021790555080156114fe576001600060016101000a81548160ff0219169083151502179055505b611506612039565b61150e612092565b6115166120e3565b8360fc819055508260fd819055508160fe819055508460ff60006101000a81548173ffffffffffffffffffffffffffffffffffffffff021916908373ffffffffffffffffffffffffffffffffffffffff16021790555080156115c55760008060016101000a81548160ff0219169083151502179055507f7f26b83ff96e1f2b6a682f133852f6798a09c465da95921460cefb384740249860016040516115bc919061325e565b60405180910390a15b5050505050565b60fb5481565b6115da611d6f565b6115e4600061213c565b565b6203f48081565b6115f5611d6f565b6101f481111561163a576040517f08c379a0000000000000000000000000000000000000000000000000000000008152600401611631906132c5565b60405180910390fd5b8060fd819055507f0852b77d6213c5fe567f622f797950042d0d50d0cc37ab948d90ef65baa92acc816040516116709190612802565b60405180910390a150565b6000609760009054906101000a900473ffffffffffffffffffffffffffffffffffffffff16905090565b60fe5481146116e9576040517f08c379a00000000000000000000000000000000000000000000000000000000081526004016116e090613331565b60405180910390fd5b8061010160003373ffffffffffffffffffffffffffffffffffffffff1673ffffffffffffffffffffffffffffffffffffffff1681526020019081526020016000208190555050565b611739611d6f565b6103e881111561177e576040517f08c379a0000000000000000000000000000000000000000000000000000000008152600401611775906132c5565b60405180910390fd5b8060fc819055507f45610d581145924dd7090a5017e5f2b1d6f42213bb2e95707ff86846bbfcb1ca816040516117b49190612802565b60405180910390a150565b60fe5481565b806000811180156117d8575060fb548111155b611817576040517f08c379a000000000000000000000000000000000000000000000000000000000815260040161180e90612bde565b60405180910390fd5b6000610100600084815260200190815260200160002090508060000160009054906101000a900473ffffffffffffffffffffffffffffffffffffffff1673ffffffffffffffffffffffffffffffffffffffff163373ffffffffffffffffffffffffffffffffffffffff1614806118dc57508060010160009054906101000a900473ffffffffffffffffffffffffffffffffffffffff1673ffffffffffffffffffffffffffffffffffffffff163373ffffffffffffffffffffffffffffffffffffffff16145b61191b576040517f08c379a00000000000000000000000000000000000000000000000000000000081526004016119129061339d565b60405180910390fd5b6001600481111561192f5761192e61264b565b5b8160050160009054906101000a900460ff1660048111156119535761195261264b565b5b14611993576040517f08c379a000000000000000000000000000000000000000000000000000000000815260040161198a90612c4a565b60405180910390fd5b60048160050160006101000a81548160ff021916908360048111156119bb576119ba61264b565b5b0217905550827f7ce7831fed9a800b1aa5e7ca21034bf7b95efc31a196459012cf8b8eb42b7dac60405160405180910390a2505050565b6119fa611d6f565b8060fe819055507feeb9923900baee623fabb2ce3d390bcd26e33f69b0d82f5ee3a733c0d0ce621581604051611a3091906127a7565b60405180910390a150565b60ff60009054906101000a900473ffffffffffffffffffffffffffffffffffffffff1681565b6101f481565b60fd5481565b80600081118015611a80575060fb548111155b611abf576040517f08c379a0000000000000000000000000000000000000000000000000000000008152600401611ab690612bde565b60405180910390fd5b60006101006000848152602001908152602001600020905060016004811115611aeb57611aea61264b565b5b8160050160009054906101000a900460ff166004811115611b0f57611b0e61264b565b5b14611b4f576040517f08c379a0000000000000000000000000000000000000000000000000000000008152600401611b4690613409565b60405180910390fd5b8060000160009054906101000a900473ffffffffffffffffffffffffffffffffffffffff1673ffffffffffffffffffffffffffffffffffffffff163373ffffffffffffffffffffffffffffffffffffffff161480611bdf5750611bb061167b565b73ffffffffffffffffffffffffffffffffffffffff163373ffffffffffffffffffffffffffffffffffffffff16145b611c1e576040517f08c379a0000000000000000000000000000000000000000000000000000000008152600401611c1590613475565b60405180910390fd5b60028160050160006101000a81548160ff02191690836004811115611c4657611c4561264b565b5b02179055508060010160009054906101000a900473ffffffffffffffffffffffffffffffffffffffff1673ffffffffffffffffffffffffffffffffffffffff166108fc82600201549081150290604051600060405180830381858888f19350505050158015611cb9573d6000803e3d6000fd5b50827f952b264c8e0a06cddb4bbaa6d6af1d565145329fd95bbe72cb2b53942b2dc96660405160405180910390a2505050565b611cf4611d6f565b600073ffffffffffffffffffffffffffffffffffffffff168173ffffffffffffffffffffffffffffffffffffffff1603611d63576040517f08c379a0000000000000000000000000000000000000000000000000000000008152600401611d5a90613507565b60405180910390fd5b611d6c8161213c565b50565b611d77612202565b73ffffffffffffffffffffffffffffffffffffffff16611d9561167b565b73ffffffffffffffffffffffffffffffffffffffff1614611deb576040517f08c379a0000000000000000000000000000000000000000000000000000000008152600401611de290613573565b60405180910390fd5b565b6000611e1b7f360894a13ba1a3210667c828492db98dca3e2076cc3735a920a3ca505d382bbc60001b61220a565b60000160009054906101000a900473ffffffffffffffffffffffffffffffffffffffff16905090565b611e4c611d6f565b50565b611e7b7f4910fdfa16fed3260ed0e7147f7cc6da11a60208b5b9406d12a635614ffd914360001b612214565b60000160009054906101000a900460ff1615611e9f57611e9a8361221e565b611fb8565b8273ffffffffffffffffffffffffffffffffffffffff166352d1902d6040518163ffffffff1660e01b8152600401602060405180830381865afa925050508015611f0757506040513d601f19601f82011682018060405250810190611f0491906135a8565b60015b611f46576040517f08c379a0000000000000000000000000000000000000000000000000000000008152600401611f3d90613647565b60405180910390fd5b7f360894a13ba1a3210667c828492db98dca3e2076cc3735a920a3ca505d382bbc60001b8114611fab576040517f08c379a0000000000000000000000000000000000000000000000000000000008152600401611fa2906136d9565b60405180910390fd5b50611fb78383836122d7565b5b505050565b600260c95403612002576040517f08c379a0000000000000000000000000000000000000000000000000000000008152600401611ff990613745565b60405180910390fd5b600260c981905550565b600160c981905550565b6000808273ffffffffffffffffffffffffffffffffffffffff163b119050919050565b600060019054906101000a900460ff16612088576040517f08c379a000000000000000000000000000000000000000000000000000000000815260040161207f906137d7565b60405180910390fd5b612090612303565b565b600060019054906101000a900460ff166120e1576040517f08c379a00000000000000000000000000000000000000000000000000000000081526004016120d8906137d7565b60405180910390fd5b565b600060019054906101000a900460ff16612132576040517f08c379a0000000000000000000000000000000000000000000000000000000008152600401612129906137d7565b60405180910390fd5b61213a612364565b565b6000609760009054906101000a900473ffffffffffffffffffffffffffffffffffffffff16905081609760006101000a81548173ffffffffffffffffffffffffffffffffffffffff021916908373ffffffffffffffffffffffffffffffffffffffff1602179055508173ffffffffffffffffffffffffffffffffffffffff168173ffffffffffffffffffffffffffffffffffffffff167f8be0079c531659141344cd1fd0a4f28419497f9722a3daafe3b4186f6b6457e060405160405180910390a35050565b600033905090565b6000819050919050565b6000819050919050565b61222781612016565b612266576040517f08c379a000000000000000000000000000000000000000000000000000000000815260040161225d90613869565b60405180910390fd5b806122937f360894a13ba1a3210667c828492db98dca3e2076cc3735a920a3ca505d382bbc60001b61220a565b60000160006101000a81548173ffffffffffffffffffffffffffffffffffffffff021916908373ffffffffffffffffffffffffffffffffffffffff16021790555050565b6122e0836123bd565b6000825111806122ed5750805b156122fe576122fc838361240c565b505b505050565b600060019054906101000a900460ff16612352576040517f08c379a0000000000000000000000000000000000000000000000000000000008152600401612349906137d7565b60405180910390fd5b61236261235d612202565b61213c565b565b600060019054906101000a900460ff166123b3576040517f08c379a00000000000000000000000000000000000000000000000000000000081526004016123aa906137d7565b60405180910390fd5b600160c981905550565b6123c68161221e565b8073ffffffffffffffffffffffffffffffffffffffff167fbc7cd75a20ee27fd9adebab32041f755214dbc6bffa90cc0225b39da2e5c2d3b60405160405180910390a250565b606061243183836040518060600160405280602781526020016139e460279139612439565b905092915050565b60606000808573ffffffffffffffffffffffffffffffffffffffff168560405161246391906138fa565b600060405180830381855af49150503d806000811461249e576040519150601f19603f3d011682016040523d82523d6000602084013e6124a3565b606091505b50915091506124b4868383876124bf565b925050509392505050565b60608315612521576000835103612519576124d985612016565b612518576040517f08c379a000000000000000000000000000000000000000000000000000000000815260040161250f9061395d565b60405180910390fd5b5b82905061252c565b61252b8383612534565b5b949350505050565b6000825111156125475781518083602001fd5b806040517f08c379a000000000000000000000000000000000000000000000000000000000815260040161257b91906139c1565b60405180910390fd5b6000604051905090565b600080fd5b600080fd5b6000819050919050565b6125ab81612598565b81146125b657600080fd5b50565b6000813590506125c8816125a2565b92915050565b6000602082840312156125e4576125e361258e565b5b60006125f2848285016125b9565b91505092915050565b600073ffffffffffffffffffffffffffffffffffffffff82169050919050565b6000612626826125fb565b9050919050565b6126368161261b565b82525050565b61264581612598565b82525050565b7f4e487b7100000000000000000000000000000000000000000000000000000000600052602160045260246000fd5b6005811061268b5761268a61264b565b5b50565b600081905061269c8261267a565b919050565b60006126ac8261268e565b9050919050565b6126bc816126a1565b82525050565b600060c0820190506126d7600083018961262d565b6126e4602083018861262d565b6126f1604083018761263c565b6126fe606083018661263c565b61270b608083018561263c565b61271860a08301846126b3565b979650505050505050565b600061272e826125fb565b9050919050565b61273e81612723565b811461274957600080fd5b50565b60008135905061275b81612735565b92915050565b6000602082840312156127775761277661258e565b5b60006127858482850161274c565b91505092915050565b6000819050919050565b6127a18161278e565b82525050565b60006020820190506127bc6000830184612798565b92915050565b600080604083850312156127d9576127d861258e565b5b60006127e7858286016125b9565b92505060206127f88582860161274c565b9150509250929050565b6000602082019050612817600083018461263c565b92915050565b6128268161261b565b811461283157600080fd5b50565b6000813590506128438161281d565b92915050565b600080604083850312156128605761285f61258e565b5b600061286e85828601612834565b925050602061287f858286016125b9565b9150509250929050565b600080fd5b600080fd5b6000601f19601f8301169050919050565b7f4e487b7100000000000000000000000000000000000000000000000000000000600052604160045260246000fd5b6128dc82612893565b810181811067ffffffffffffffff821117156128fb576128fa6128a4565b5b80604052505050565b600061290e612584565b905061291a82826128d3565b919050565b600067ffffffffffffffff82111561293a576129396128a4565b5b61294382612893565b9050602081019050919050565b82818337600083830152505050565b600061297261296d8461291f565b612904565b90508281526020810184848401111561298e5761298d61288e565b5b612999848285612950565b509392505050565b600082601f8301126129b6576129b5612889565b5b81356129c684826020860161295f565b91505092915050565b600080604083850312156129e6576129e561258e565b5b60006129f48582860161274c565b925050602083013567ffffffffffffffff811115612a1557612a14612593565b5b612a21858286016129a1565b9150509250929050565b612a348161278e565b8114612a3f57600080fd5b50565b600081359050612a5181612a2b565b92915050565b60008060008060808587031215612a7157612a7061258e565b5b6000612a7f8782880161274c565b9450506020612a90878288016125b9565b9350506040612aa1878288016125b9565b9250506060612ab287828801612a42565b91505092959194509250565b612ac781612723565b82525050565b6000602082019050612ae26000830184612abe565b92915050565b600060208284031215612afe57612afd61258e565b5b6000612b0c84828501612a42565b91505092915050565b600082825260208201905092915050565b7f4e6f742062757965720000000000000000000000000000000000000000000000600082015250565b6000612b5c600983612b15565b9150612b6782612b26565b602082019050919050565b60006020820190508181036000830152612b8b81612b4f565b9050919050565b7f496e76616c696420657363726f77204944000000000000000000000000000000600082015250565b6000612bc8601183612b15565b9150612bd382612b92565b602082019050919050565b60006020820190508181036000830152612bf781612bbb565b9050919050565b7f496e76616c696420737461747573000000000000000000000000000000000000600082015250565b6000612c34600e83612b15565b9150612c3f82612bfe565b602082019050919050565b60006020820190508181036000830152612c6381612c27565b9050919050565b7f4e6f742064697370757465640000000000000000000000000000000000000000600082015250565b6000612ca0600c83612b15565b9150612cab82612c6a565b602082019050919050565b60006020820190508181036000830152612ccf81612c93565b9050919050565b7f4e487b7100000000000000000000000000000000000000000000000000000000600052601160045260246000fd5b6000612d1082612598565b9150612d1b83612598565b9250828201905080821115612d3357612d32612cd6565b5b92915050565b7f546f6f206c61746520746f2063616e63656c0000000000000000000000000000600082015250565b6000612d6f601283612b15565b9150612d7a82612d39565b602082019050919050565b60006020820190508181036000830152612d9e81612d62565b9050919050565b6000612db082612598565b9150612dbb83612598565b9250828202612dc981612598565b91508282048414831517612de057612ddf612cd6565b5b5092915050565b7f4e487b7100000000000000000000000000000000000000000000000000000000600052601260045260246000fd5b6000612e2182612598565b9150612e2c83612598565b925082612e3c57612e3b612de7565b5b828204905092915050565b6000612e5282612598565b9150612e5d83612598565b9250828203905081811115612e7557612e74612cd6565b5b92915050565b7f46756e6374696f6e206d7573742062652063616c6c6564207468726f7567682060008201527f64656c656761746563616c6c0000000000000000000000000000000000000000602082015250565b6000612ed7602c83612b15565b9150612ee282612e7b565b604082019050919050565b60006020820190508181036000830152612f0681612eca565b9050919050565b7f46756e6374696f6e206d7573742062652063616c6c6564207468726f7567682060008201527f6163746976652070726f78790000000000000000000000000000000000000000602082015250565b6000612f69602c83612b15565b9150612f7482612f0d565b604082019050919050565b60006020820190508181036000830152612f9881612f5c565b9050919050565b7f4d7573742073656e642066756e64730000000000000000000000000000000000600082015250565b6000612fd5600f83612b15565b9150612fe082612f9f565b602082019050919050565b6000602082019050818103600083015261300481612fc8565b9050919050565b7f5465726d73206e6f742061636365707465640000000000000000000000000000600082015250565b6000613041601283612b15565b915061304c8261300b565b602082019050919050565b6000602082019050818103600083015261307081613034565b9050919050565b600061308282612598565b91507fffffffffffffffffffffffffffffffffffffffffffffffffffffffffffffffff82036130b4576130b3612cd6565b5b600182019050919050565b60006040820190506130d4600083018561263c565b6130e1602083018461263c565b9392505050565b7f555550535570677261646561626c653a206d757374206e6f742062652063616c60008201527f6c6564207468726f7567682064656c656761746563616c6c0000000000000000602082015250565b6000613144603883612b15565b915061314f826130e8565b604082019050919050565b6000602082019050818103600083015261317381613137565b9050919050565b7f496e697469616c697a61626c653a20636f6e747261637420697320616c72656160008201527f647920696e697469616c697a6564000000000000000000000000000000000000602082015250565b60006131d6602e83612b15565b91506131e18261317a565b604082019050919050565b60006020820190508181036000830152613205816131c9565b9050919050565b6000819050919050565b600060ff82169050919050565b6000819050919050565b600061324861324361323e8461320c565b613223565b613216565b9050919050565b6132588161322d565b82525050565b6000602082019050613273600083018461324f565b92915050565b7f546f6f2068696768000000000000000000000000000000000000000000000000600082015250565b60006132af600883612b15565b91506132ba82613279565b602082019050919050565b600060208201905081810360008301526132de816132a2565b9050919050565b7f496e76616c6964207465726d7300000000000000000000000000000000000000600082015250565b600061331b600d83612b15565b9150613326826132e5565b602082019050919050565b6000602082019050818103600083015261334a8161330e565b9050919050565b7f4e6f7420706172747920746f20657363726f7700000000000000000000000000600082015250565b6000613387601383612b15565b915061339282613351565b602082019050919050565b600060208201905081810360008301526133b68161337a565b9050919050565b7f4e6f7420617070726f7665640000000000000000000000000000000000000000600082015250565b60006133f3600c83612b15565b91506133fe826133bd565b602082019050919050565b60006020820190508181036000830152613422816133e6565b9050919050565b7f4e6f7420617574686f72697a6564000000000000000000000000000000000000600082015250565b600061345f600e83612b15565b915061346a82613429565b602082019050919050565b6000602082019050818103600083015261348e81613452565b9050919050565b7f4f776e61626c653a206e6577206f776e657220697320746865207a65726f206160008201527f6464726573730000000000000000000000000000000000000000000000000000602082015250565b60006134f1602683612b15565b91506134fc82613495565b604082019050919050565b60006020820190508181036000830152613520816134e4565b9050919050565b7f4f776e61626c653a2063616c6c6572206973206e6f7420746865206f776e6572600082015250565b600061355d602083612b15565b915061356882613527565b602082019050919050565b6000602082019050818103600083015261358c81613550565b9050919050565b6000815190506135a281612a2b565b92915050565b6000602082840312156135be576135bd61258e565b5b60006135cc84828501613593565b91505092915050565b7f45524331393637557067726164653a206e657720696d706c656d656e7461746960008201527f6f6e206973206e6f742055555053000000000000000000000000000000000000602082015250565b6000613631602e83612b15565b915061363c826135d5565b604082019050919050565b6000602082019050818103600083015261366081613624565b9050919050565b7f45524331393637557067726164653a20756e737570706f727465642070726f7860008201527f6961626c65555549440000000000000000000000000000000000000000000000602082015250565b60006136c3602983612b15565b91506136ce82613667565b604082019050919050565b600060208201905081810360008301526136f2816136b6565b9050919050565b7f5265656e7472616e637947756172643a207265656e7472616e742063616c6c00600082015250565b600061372f601f83612b15565b915061373a826136f9565b602082019050919050565b6000602082019050818103600083015261375e81613722565b9050919050565b7f496e697469616c697a61626c653a20636f6e7472616374206973206e6f74206960008201527f6e697469616c697a696e67000000000000000000000000000000000000000000602082015250565b60006137c1602b83612b15565b91506137cc82613765565b604082019050919050565b600060208201905081810360008301526137f0816137b4565b9050919050565b7f455243313936373a206e657720696d706c656d656e746174696f6e206973206e60008201527f6f74206120636f6e747261637400000000000000000000000000000000000000602082015250565b6000613853602d83612b15565b915061385e826137f7565b604082019050919050565b6000602082019050818103600083015261388281613846565b9050919050565b600081519050919050565b600081905092915050565b60005b838110156138bd5780820151818401526020810190506138a2565b60008484015250505050565b60006138d482613889565b6138de8185613894565b93506138ee81856020860161389f565b80840191505092915050565b600061390682846138c9565b915081905092915050565b7f416464726573733a2063616c6c20746f206e6f6e2d636f6e7472616374000000600082015250565b6000613947601d83612b15565b915061395282613911565b602082019050919050565b600060208201905081810360008301526139768161393a565b9050919050565b600081519050919050565b60006139938261397d565b61399d8185612b15565b93506139ad81856020860161389f565b6139b681612893565b840191505092915050565b600060208201905081810360008301526139db8184613988565b90509291505056fe416464726573733a206c6f772d6c6576656c2064656c65676174652063616c6c206661696c6564a2646970667358221220392904bad2e830b61f676ffd702d7287c01ba70a0fedb06dc2b3f8c921facd9f64736f6c634300081c0033",
  "linkReferences": {},
  "deployedLinkReferences": {}
}