{
  "_format": "hh-sol-artifact-1",
  "contractName": "MultiEscrowManager",
  "sourceName": "contracts/MultiEscrowManager.sol",
  "abi": [
    {
      "inputs": [
        {
          "internalType": "address",
          "name": "target",
          "type": "address"
        }
      ],
      "name": "AddressEmptyCode",
      "type": "error"
    },
    {
      "inputs": [
        {
          "internalType": "address",
          "name": "implementation",
          "type": "address"
        }
      ],
      "name": "ERC1967InvalidImplementation",
      "type": "error"
    },
    {
      "inputs": [],
      "name": "ERC1967NonPayable",
      "type": "error"
    },
    {
      "inputs": [],
      "name": "FailedCall",
      "type": "error"
    },
    {
      "inputs": [],
      "name": "InvalidInitialization",
      "type": "error"
    },
    {
      "inputs": [],
      "name": "NotInitializing",
      "type": "error"
    },
    {
      "inputs": [],
      "name": "ReentrancyGuardReentrantCall",
      "type": "error"
    },
    {
      "inputs": [],
      "name": "UUPSUnauthorizedCallContext",
      "type": "error"
    },
    {
      "inputs": [
        {
          "internalType": "bytes32",
          "name": "slot",
          "type": "bytes32"
        }
      ],
      "name": "UUPSUnsupportedProxiableUUID",
      "type": "error"
    },
    {
      "anonymous": false,
      "inputs": [
        {
          "indexed": true,
          "internalType": "uint256",
          "name": "id",
          "type": "uint256"
        },
        {
          "indexed": false,
          "internalType": "address",
          "name": "winner",
          "type": "address"
        }
      ],
      "name": "DisputeResolved",
      "type": "event"
    },
    {
      "anonymous": false,
      "inputs": [
        {
          "indexed": true,
          "internalType": "uint256",
          "name": "id",
          "type": "uint256"
        },
        {
          "indexed": true,
          "internalType": "address",
          "name": "buyer",
          "type": "address"
        },
        {
          "indexed": true,
          "internalType": "address",
          "name": "seller",
          "type": "address"
        },
        {
          "indexed": false,
          "internalType": "uint256",
          "name": "amount",
          "type": "uint256"
        }
      ],
      "name": "EscrowCreated",
      "type": "event"
    },
    {
      "anonymous": false,
      "inputs": [
        {
          "indexed": true,
          "internalType": "uint256",
          "name": "id",
          "type": "uint256"
        }
      ],
      "name": "EscrowDisputed",
      "type": "event"
    },
    {
      "anonymous": false,
      "inputs": [
        {
          "indexed": true,
          "internalType": "uint256",
          "name": "id",
          "type": "uint256"
        }
      ],
      "name": "EscrowRefunded",
      "type": "event"
    },
    {
      "anonymous": false,
      "inputs": [
        {
          "indexed": true,
          "internalType": "uint256",
          "name": "id",
          "type": "uint256"
        }
      ],
      "name": "FundsApproved",
      "type": "event"
    },
    {
      "anonymous": false,
      "inputs": [
        {
          "indexed": true,
          "internalType": "uint256",
          "name": "id",
          "type": "uint256"
        }
      ],
      "name": "FundsReleased",
      "type": "event"
    },
    {
      "anonymous": false,
      "inputs": [
        {
          "indexed": false,
          "internalType": "uint64",
          "name": "version",
          "type": "uint64"
        }
      ],
      "name": "Initialized",
      "type": "event"
    },
    {
      "anonymous": false,
      "inputs": [
        {
          "indexed": true,
          "internalType": "address",
          "name": "implementation",
          "type": "address"
        }
      ],
      "name": "Upgraded",
      "type": "event"
    },
    {
      "inputs": [],
      "name": "UPGRADE_INTERFACE_VERSION",
      "outputs": [
        {
          "internalType": "string",
          "name": "",
          "type": "string"
        }
      ],
      "stateMutability": "view",
      "type": "function"
    },
    {
      "inputs": [],
      "name": "admin",
      "outputs": [
        {
          "internalType": "address",
          "name": "",
          "type": "address"
        }
      ],
      "stateMutability": "view",
      "type": "function"
    },
    {
      "inputs": [
        {
          "internalType": "uint256",
          "name": "_id",
          "type": "uint256"
        }
      ],
      "name": "approveFunds",
      "outputs": [],
      "stateMutability": "nonpayable",
      "type": "function"
    },
    {
      "inputs": [
        {
          "internalType": "address payable",
          "name": "_seller",
          "type": "address"
        },
        {
          "internalType": "uint256",
          "name": "_deadline",
          "type": "uint256"
        }
      ],
      "name": "createEscrow",
      "outputs": [
        {
          "internalType": "uint256",
          "name": "",
          "type": "uint256"
        }
      ],
      "stateMutability": "payable",
      "type": "function"
    },
    {
      "inputs": [
        {
          "internalType": "uint256",
          "name": "_id",
          "type": "uint256"
        }
      ],
      "name": "disputeEscrow",
      "outputs": [],
      "stateMutability": "nonpayable",
      "type": "function"
    },
    {
      "inputs": [],
      "name": "escrowCount",
      "outputs": [
        {
          "internalType": "uint256",
          "name": "",
          "type": "uint256"
        }
      ],
      "stateMutability": "view",
      "type": "function"
    },
    {
      "inputs": [
        {
          "internalType": "uint256",
          "name": "",
          "type": "uint256"
        }
      ],
      "name": "escrows",
      "outputs": [
        {
          "internalType": "address payable",
          "name": "buyer",
          "type": "address"
        },
        {
          "internalType": "address payable",
          "name": "seller",
          "type": "address"
        },
        {
          "internalType": "uint256",
          "name": "amount",
          "type": "uint256"
        },
        {
          "internalType": "uint256",
          "name": "deadline",
          "type": "uint256"
        },
        {
          "internalType": "enum MultiEscrowManager.EscrowStatus",
          "name": "status",
          "type": "uint8"
        }
      ],
      "stateMutability": "view",
      "type": "function"
    },
    {
      "inputs": [
        {
          "internalType": "address",
          "name": "_admin",
          "type": "address"
        }
      ],
      "name": "initialize",
      "outputs": [],
      "stateMutability": "nonpayable",
      "type": "function"
    },
    {
      "inputs": [],
      "name": "proxiableUUID",
      "outputs": [
        {
          "internalType": "bytes32",
          "name": "",
          "type": "bytes32"
        }
      ],
      "stateMutability": "view",
      "type": "function"
    },
    {
      "inputs": [
        {
          "internalType": "uint256",
          "name": "_id",
          "type": "uint256"
        }
      ],
      "name": "refund",
      "outputs": [],
      "stateMutability": "nonpayable",
      "type": "function"
    },
    {
      "inputs": [
        {
          "internalType": "uint256",
          "name": "_id",
          "type": "uint256"
        }
      ],
      "name": "releaseFunds",
      "outputs": [],
      "stateMutability": "nonpayable",
      "type": "function"
    },
    {
      "inputs": [
        {
          "internalType": "uint256",
          "name": "_id",
          "type": "uint256"
        },
        {
          "internalType": "address payable",
          "name": "_winner",
          "type": "address"
        }
      ],
      "name": "resolveDispute",
      "outputs": [],
      "stateMutability": "nonpayable",
      "type": "function"
    },
    {
      "inputs": [
        {
          "internalType": "address",
          "name": "newImplementation",
          "type": "address"
        },
        {
          "internalType": "bytes",
          "name": "data",
          "type": "bytes"
        }
      ],
      "name": "upgradeToAndCall",
      "outputs": [],
      "stateMutability": "payable",
      "type": "function"
    }
  ],
  "bytecode": "0x60a06040523073ffffffffffffffffffffffffffffffffffffffff1660809073ffffffffffffffffffffffffffffffffffffffff16815250348015604257600080fd5b5060805161287261006c600039600081816113ba0152818161140f015261165001526128726000f3fe6080604052600436106100c25760003560e01c806352d1902d1161007f578063ad3cb1cc11610059578063ad3cb1cc1461024e578063b563153c14610279578063c4d66de8146102a2578063f851a440146102cb576100c2565b806352d1902d146101cf578063675ac67a146101fa57806389241f9614610225576100c2565b8063012f52ee146100c75780630e33599d14610108578063278ecde1146101315780634614874e1461015a5780634d68282f1461018a5780634f1ef286146101b3575b600080fd5b3480156100d357600080fd5b506100ee60048036038101906100e99190611b59565b6102f6565b6040516100ff959493929190611c4d565b60405180910390f35b34801561011457600080fd5b5061012f600480360381019061012a9190611ccc565b610379565b005b34801561013d57600080fd5b5061015860048036038101906101539190611b59565b6105c0565b005b610174600480360381019061016f9190611d0c565b6108be565b6040516101819190611d4c565b60405180910390f35b34801561019657600080fd5b506101b160048036038101906101ac9190611b59565b610ad9565b005b6101cd60048036038101906101c89190611eeb565b610d51565b005b3480156101db57600080fd5b506101e4610d70565b6040516101f19190611f60565b60405180910390f35b34801561020657600080fd5b5061020f610da3565b60405161021c9190611d4c565b60405180910390f35b34801561023157600080fd5b5061024c60048036038101906102479190611b59565b610da9565b005b34801561025a57600080fd5b50610263610f3c565b6040516102709190611ffa565b60405180910390f35b34801561028557600080fd5b506102a0600480360381019061029b9190611b59565b610f75565b005b3480156102ae57600080fd5b506102c960048036038101906102c4919061201c565b61114e565b005b3480156102d757600080fd5b506102e0611324565b6040516102ed9190612058565b60405180910390f35b60026020528060005260406000206000915090508060000160009054906101000a900473ffffffffffffffffffffffffffffffffffffffff16908060010160009054906101000a900473ffffffffffffffffffffffffffffffffffffffff16908060020154908060030154908060040160009054906101000a900460ff16905085565b60008054906101000a900473ffffffffffffffffffffffffffffffffffffffff1673ffffffffffffffffffffffffffffffffffffffff163373ffffffffffffffffffffffffffffffffffffffff1614610407576040517f08c379a00000000000000000000000000000000000000000000000000000000081526004016103fe906120bf565b60405180910390fd5b61040f611348565b600060026000848152602001908152602001600020905060048081111561043957610438611bd6565b5b8160040160009054906101000a900460ff16600481111561045d5761045c611bd6565b5b1461049d576040517f08c379a00000000000000000000000000000000000000000000000000000000081526004016104949061212b565b60405180910390fd5b60028160040160006101000a81548160ff021916908360048111156104c5576104c4611bd6565b5b021790555060008273ffffffffffffffffffffffffffffffffffffffff1682600201546040516104f49061217c565b60006040518083038185875af1925050503d8060008114610531576040519150601f19603f3d011682016040523d82523d6000602084013e610536565b606091505b505090508061057a576040517f08c379a0000000000000000000000000000000000000000000000000000000008152600401610571906121dd565b60405180910390fd5b837ff77ceb5e091d2da041bc760667f9d5fe7a756949eaf29250ad0e60ca6f4c27d9846040516105aa919061225c565b60405180910390a250506105bc61139f565b5050565b806002600082815260200190815260200160002060000160009054906101000a900473ffffffffffffffffffffffffffffffffffffffff1673ffffffffffffffffffffffffffffffffffffffff163373ffffffffffffffffffffffffffffffffffffffff1614610665576040517f08c379a000000000000000000000000000000000000000000000000000000000815260040161065c906122c3565b60405180910390fd5b61066d611348565b6000600260008481526020019081526020016000209050806003015442116106ca576040517f08c379a00000000000000000000000000000000000000000000000000000000081526004016106c19061232f565b60405180910390fd5b600060048111156106de576106dd611bd6565b5b8160040160009054906101000a900460ff16600481111561070257610701611bd6565b5b148061074357506001600481111561071d5761071c611bd6565b5b8160040160009054906101000a900460ff16600481111561074157610740611bd6565b5b145b610782576040517f08c379a00000000000000000000000000000000000000000000000000000000081526004016107799061239b565b60405180910390fd5b60038160040160006101000a81548160ff021916908360048111156107aa576107a9611bd6565b5b021790555060008160000160009054906101000a900473ffffffffffffffffffffffffffffffffffffffff1673ffffffffffffffffffffffffffffffffffffffff1682600201546040516107fd9061217c565b60006040518083038185875af1925050503d806000811461083a576040519150601f19603f3d011682016040523d82523d6000602084013e61083f565b606091505b5050905080610883576040517f08c379a000000000000000000000000000000000000000000000000000000000815260040161087a90612407565b60405180910390fd5b837f2babb5cd458b6d41108d6d793a75e29ca524e7caa20e2da6c994462010920a7260405160405180910390a250506108ba61139f565b5050565b6000803411610902576040517f08c379a00000000000000000000000000000000000000000000000000000000081526004016108f990612473565b60405180910390fd5b6040518060a001604052803373ffffffffffffffffffffffffffffffffffffffff1681526020018473ffffffffffffffffffffffffffffffffffffffff1681526020013481526020018381526020016000600481111561096557610964611bd6565b5b81525060026000600154815260200190815260200160002060008201518160000160006101000a81548173ffffffffffffffffffffffffffffffffffffffff021916908373ffffffffffffffffffffffffffffffffffffffff16021790555060208201518160010160006101000a81548173ffffffffffffffffffffffffffffffffffffffff021916908373ffffffffffffffffffffffffffffffffffffffff160217905550604082015181600201556060820151816003015560808201518160040160006101000a81548160ff02191690836004811115610a4a57610a49611bd6565b5b02179055509050508273ffffffffffffffffffffffffffffffffffffffff163373ffffffffffffffffffffffffffffffffffffffff166001547f9405ad0a6208539879349284d71265479b1623846f70303da1f9890d6e8c10a734604051610ab29190611d4c565b60405180910390a460016000815480929190610acd906124c2565b91905055905092915050565b806002600082815260200190815260200160002060000160009054906101000a900473ffffffffffffffffffffffffffffffffffffffff1673ffffffffffffffffffffffffffffffffffffffff163373ffffffffffffffffffffffffffffffffffffffff1614610b7e576040517f08c379a0000000000000000000000000000000000000000000000000000000008152600401610b75906122c3565b60405180910390fd5b610b86611348565b600060026000848152602001908152602001600020905060016004811115610bb157610bb0611bd6565b5b8160040160009054906101000a900460ff166004811115610bd557610bd4611bd6565b5b14610c15576040517f08c379a0000000000000000000000000000000000000000000000000000000008152600401610c0c90612556565b60405180910390fd5b60028160040160006101000a81548160ff02191690836004811115610c3d57610c3c611bd6565b5b021790555060008160010160009054906101000a900473ffffffffffffffffffffffffffffffffffffffff1673ffffffffffffffffffffffffffffffffffffffff168260020154604051610c909061217c565b60006040518083038185875af1925050503d8060008114610ccd576040519150601f19603f3d011682016040523d82523d6000602084013e610cd2565b606091505b5050905080610d16576040517f08c379a0000000000000000000000000000000000000000000000000000000008152600401610d0d906125c2565b60405180910390fd5b837f952b264c8e0a06cddb4bbaa6d6af1d565145329fd95bbe72cb2b53942b2dc96660405160405180910390a25050610d4d61139f565b5050565b610d596113b8565b610d628261149e565b610d6c828261152f565b5050565b6000610d7a61164e565b7f360894a13ba1a3210667c828492db98dca3e2076cc3735a920a3ca505d382bbc60001b905090565b60015481565b806002600082815260200190815260200160002060000160009054906101000a900473ffffffffffffffffffffffffffffffffffffffff1673ffffffffffffffffffffffffffffffffffffffff163373ffffffffffffffffffffffffffffffffffffffff1614610e4e576040517f08c379a0000000000000000000000000000000000000000000000000000000008152600401610e45906122c3565b60405180910390fd5b600060026000848152602001908152602001600020905060006004811115610e7957610e78611bd6565b5b8160040160009054906101000a900460ff166004811115610e9d57610e9c611bd6565b5b14610edd576040517f08c379a0000000000000000000000000000000000000000000000000000000008152600401610ed49061262e565b60405180910390fd5b60018160040160006101000a81548160ff02191690836004811115610f0557610f04611bd6565b5b0217905550827f0649d8e40524587f74eb95a2bc1f96a325cbeb7657bf29340a3c7672c11d874660405160405180910390a2505050565b6040518060400160405280600581526020017f352e302e3000000000000000000000000000000000000000000000000000000081525081565b60006002600083815260200190815260200160002090508060000160009054906101000a900473ffffffffffffffffffffffffffffffffffffffff1673ffffffffffffffffffffffffffffffffffffffff163373ffffffffffffffffffffffffffffffffffffffff16148061103957508060010160009054906101000a900473ffffffffffffffffffffffffffffffffffffffff1673ffffffffffffffffffffffffffffffffffffffff163373ffffffffffffffffffffffffffffffffffffffff16145b611078576040517f08c379a000000000000000000000000000000000000000000000000000000000815260040161106f9061269a565b60405180910390fd5b6001600481111561108c5761108b611bd6565b5b8160040160009054906101000a900460ff1660048111156110b0576110af611bd6565b5b146110f0576040517f08c379a00000000000000000000000000000000000000000000000000000000081526004016110e790612706565b60405180910390fd5b60048160040160006101000a81548160ff0219169083600481111561111857611117611bd6565b5b0217905550817f7ce7831fed9a800b1aa5e7ca21034bf7b95efc31a196459012cf8b8eb42b7dac60405160405180910390a25050565b60006111586116d5565b905060008160000160089054906101000a900460ff1615905060008260000160009054906101000a900467ffffffffffffffff1690506000808267ffffffffffffffff161480156111a65750825b9050600060018367ffffffffffffffff161480156111db575060003073ffffffffffffffffffffffffffffffffffffffff163b145b9050811580156111e9575080155b15611220576040517ff92ee8a900000000000000000000000000000000000000000000000000000000815260040160405180910390fd5b60018560000160006101000a81548167ffffffffffffffff021916908367ffffffffffffffff16021790555083156112705760018560000160086101000a81548160ff0219169083151502179055505b856000806101000a81548173ffffffffffffffffffffffffffffffffffffffff021916908373ffffffffffffffffffffffffffffffffffffffff1602179055506112b86116e9565b6112c06116fb565b831561131c5760008560000160086101000a81548160ff0219169083151502179055507fc7f505b2f371ae2175ee4913f4499e1f2633a7b5936321eed1cdaeb6115181d260016040516113139190612775565b60405180910390a15b505050505050565b60008054906101000a900473ffffffffffffffffffffffffffffffffffffffff1681565b6000611352611705565b90506002816000015403611392576040517f3ee5aeb500000000000000000000000000000000000000000000000000000000815260040160405180910390fd5b6002816000018190555050565b60006113a9611705565b90506001816000018190555050565b7f000000000000000000000000000000000000000000000000000000000000000073ffffffffffffffffffffffffffffffffffffffff163073ffffffffffffffffffffffffffffffffffffffff16148061146557507f000000000000000000000000000000000000000000000000000000000000000073ffffffffffffffffffffffffffffffffffffffff1661144c61172d565b73ffffffffffffffffffffffffffffffffffffffff1614155b1561149c576040517fe07c8dba00000000000000000000000000000000000000000000000000000000815260040160405180910390fd5b565b60008054906101000a900473ffffffffffffffffffffffffffffffffffffffff1673ffffffffffffffffffffffffffffffffffffffff163373ffffffffffffffffffffffffffffffffffffffff161461152c576040517f08c379a0000000000000000000000000000000000000000000000000000000008152600401611523906120bf565b60405180910390fd5b50565b8173ffffffffffffffffffffffffffffffffffffffff166352d1902d6040518163ffffffff1660e01b8152600401602060405180830381865afa92505050801561159757506040513d601f19601f8201168201806040525081019061159491906127bc565b60015b6115d857816040517f4c9c8ce30000000000000000000000000000000000000000000000000000000081526004016115cf9190612058565b60405180910390fd5b7f360894a13ba1a3210667c828492db98dca3e2076cc3735a920a3ca505d382bbc60001b811461163f57806040517faa1d49a40000000000000000000000000000000000000000000000000000000081526004016116369190611f60565b60405180910390fd5b6116498383611784565b505050565b7f000000000000000000000000000000000000000000000000000000000000000073ffffffffffffffffffffffffffffffffffffffff163073ffffffffffffffffffffffffffffffffffffffff16146116d3576040517fe07c8dba00000000000000000000000000000000000000000000000000000000815260040160405180910390fd5b565b6000806116e06117f7565b90508091505090565b6116f1611822565b6116f9611862565b565b611703611822565b565b60007f9b779b17422d0df92223018b32b4d1fa46e071723d6817e2486d003becc55f00905090565b600061175b7f360894a13ba1a3210667c828492db98dca3e2076cc3735a920a3ca505d382bbc60001b611883565b60000160009054906101000a900473ffffffffffffffffffffffffffffffffffffffff16905090565b61178d8261188d565b8173ffffffffffffffffffffffffffffffffffffffff167fbc7cd75a20ee27fd9adebab32041f755214dbc6bffa90cc0225b39da2e5c2d3b60405160405180910390a26000815111156117ea576117e4828261195a565b506117f3565b6117f26119de565b5b5050565b60007ff0c57e16840df040f15088dc2f81fe391c3923bec73e23a9662efc9c229c6a0060001b905090565b61182a611a1b565b611860576040517fd7e6bcf800000000000000000000000000000000000000000000000000000000815260040160405180910390fd5b565b61186a611822565b6000611874611705565b90506001816000018190555050565b6000819050919050565b60008173ffffffffffffffffffffffffffffffffffffffff163b036118e957806040517f4c9c8ce30000000000000000000000000000000000000000000000000000000081526004016118e09190612058565b60405180910390fd5b806119167f360894a13ba1a3210667c828492db98dca3e2076cc3735a920a3ca505d382bbc60001b611883565b60000160006101000a81548173ffffffffffffffffffffffffffffffffffffffff021916908373ffffffffffffffffffffffffffffffffffffffff16021790555050565b60606000808473ffffffffffffffffffffffffffffffffffffffff16846040516119849190612825565b600060405180830381855af49150503d80600081146119bf576040519150601f19603f3d011682016040523d82523d6000602084013e6119c4565b606091505b50915091506119d4858383611a3b565b9250505092915050565b6000341115611a19576040517fb398979f00000000000000000000000000000000000000000000000000000000815260040160405180910390fd5b565b6000611a256116d5565b60000160089054906101000a900460ff16905090565b606082611a5057611a4b82611aca565b611ac2565b60008251148015611a78575060008473ffffffffffffffffffffffffffffffffffffffff163b145b15611aba57836040517f9996b315000000000000000000000000000000000000000000000000000000008152600401611ab19190612058565b60405180910390fd5b819050611ac3565b5b9392505050565b600081511115611add5780518082602001fd5b6040517fd6bda27500000000000000000000000000000000000000000000000000000000815260040160405180910390fd5b6000604051905090565b600080fd5b600080fd5b6000819050919050565b611b3681611b23565b8114611b4157600080fd5b50565b600081359050611b5381611b2d565b92915050565b600060208284031215611b6f57611b6e611b19565b5b6000611b7d84828501611b44565b91505092915050565b600073ffffffffffffffffffffffffffffffffffffffff82169050919050565b6000611bb182611b86565b9050919050565b611bc181611ba6565b82525050565b611bd081611b23565b82525050565b7f4e487b7100000000000000000000000000000000000000000000000000000000600052602160045260246000fd5b60058110611c1657611c15611bd6565b5b50565b6000819050611c2782611c05565b919050565b6000611c3782611c19565b9050919050565b611c4781611c2c565b82525050565b600060a082019050611c626000830188611bb8565b611c6f6020830187611bb8565b611c7c6040830186611bc7565b611c896060830185611bc7565b611c966080830184611c3e565b9695505050505050565b611ca981611ba6565b8114611cb457600080fd5b50565b600081359050611cc681611ca0565b92915050565b60008060408385031215611ce357611ce2611b19565b5b6000611cf185828601611b44565b9250506020611d0285828601611cb7565b9150509250929050565b60008060408385031215611d2357611d22611b19565b5b6000611d3185828601611cb7565b9250506020611d4285828601611b44565b9150509250929050565b6000602082019050611d616000830184611bc7565b92915050565b6000611d7282611b86565b9050919050565b611d8281611d67565b8114611d8d57600080fd5b50565b600081359050611d9f81611d79565b92915050565b600080fd5b600080fd5b6000601f19601f8301169050919050565b7f4e487b7100000000000000000000000000000000000000000000000000000000600052604160045260246000fd5b611df882611daf565b810181811067ffffffffffffffff82111715611e1757611e16611dc0565b5b80604052505050565b6000611e2a611b0f565b9050611e368282611def565b919050565b600067ffffffffffffffff821115611e5657611e55611dc0565b5b611e5f82611daf565b9050602081019050919050565b82818337600083830152505050565b6000611e8e611e8984611e3b565b611e20565b905082815260208101848484011115611eaa57611ea9611daa565b5b611eb5848285611e6c565b509392505050565b600082601f830112611ed257611ed1611da5565b5b8135611ee2848260208601611e7b565b91505092915050565b60008060408385031215611f0257611f01611b19565b5b6000611f1085828601611d90565b925050602083013567ffffffffffffffff811115611f3157611f30611b1e565b5b611f3d85828601611ebd565b9150509250929050565b6000819050919050565b611f5a81611f47565b82525050565b6000602082019050611f756000830184611f51565b92915050565b600081519050919050565b600082825260208201905092915050565b60005b83811015611fb5578082015181840152602081019050611f9a565b60008484015250505050565b6000611fcc82611f7b565b611fd68185611f86565b9350611fe6818560208601611f97565b611fef81611daf565b840191505092915050565b600060208201905081810360008301526120148184611fc1565b905092915050565b60006020828403121561203257612031611b19565b5b600061204084828501611d90565b91505092915050565b61205281611d67565b82525050565b600060208201905061206d6000830184612049565b92915050565b7f4f6e6c792061646d696e2063616e2063616c6c20746869730000000000000000600082015250565b60006120a9601883611f86565b91506120b482612073565b602082019050919050565b600060208201905081810360008301526120d88161209c565b9050919050565b7f457363726f77206e6f7420696e20646973707574650000000000000000000000600082015250565b6000612115601583611f86565b9150612120826120df565b602082019050919050565b6000602082019050818103600083015261214481612108565b9050919050565b600081905092915050565b50565b600061216660008361214b565b915061217182612156565b600082019050919050565b600061218782612159565b9150819050919050565b7f5061796f7574206661696c656400000000000000000000000000000000000000600082015250565b60006121c7600d83611f86565b91506121d282612191565b602082019050919050565b600060208201905081810360008301526121f6816121ba565b9050919050565b6000819050919050565b600061222261221d61221884611b86565b6121fd565b611b86565b9050919050565b600061223482612207565b9050919050565b600061224682612229565b9050919050565b6122568161223b565b82525050565b6000602082019050612271600083018461224d565b92915050565b7f4f6e6c792062757965722063616e2063616c6c20746869730000000000000000600082015250565b60006122ad601883611f86565b91506122b882612277565b602082019050919050565b600060208201905081810360008301526122dc816122a0565b9050919050565b7f457363726f77206e6f7420657870697265640000000000000000000000000000600082015250565b6000612319601283611f86565b9150612324826122e3565b602082019050919050565b600060208201905081810360008301526123488161230c565b9050919050565b7f43616e6e6f7420726566756e64206e6f77000000000000000000000000000000600082015250565b6000612385601183611f86565b91506123908261234f565b602082019050919050565b600060208201905081810360008301526123b481612378565b9050919050565b7f526566756e64206661696c656400000000000000000000000000000000000000600082015250565b60006123f1600d83611f86565b91506123fc826123bb565b602082019050919050565b60006020820190508181036000830152612420816123e4565b9050919050565b7f4d7573742073656e642045544820746f20657363726f77000000000000000000600082015250565b600061245d601783611f86565b915061246882612427565b602082019050919050565b6000602082019050818103600083015261248c81612450565b9050919050565b7f4e487b7100000000000000000000000000000000000000000000000000000000600052601160045260246000fd5b60006124cd82611b23565b91507fffffffffffffffffffffffffffffffffffffffffffffffffffffffffffffffff82036124ff576124fe612493565b5b600182019050919050565b7f457363726f77206e6f7420617070726f76656400000000000000000000000000600082015250565b6000612540601383611f86565b915061254b8261250a565b602082019050919050565b6000602082019050818103600083015261256f81612533565b9050919050565b7f5472616e73666572206661696c65640000000000000000000000000000000000600082015250565b60006125ac600f83611f86565b91506125b782612576565b602082019050919050565b600060208201905081810360008301526125db8161259f565b9050919050565b7f457363726f77206e6f7420696e20437265617465642073746174650000000000600082015250565b6000612618601b83611f86565b9150612623826125e2565b602082019050919050565b600060208201905081810360008301526126478161260b565b9050919050565b7f4f6e6c79206275796572206f722073656c6c6572000000000000000000000000600082015250565b6000612684601483611f86565b915061268f8261264e565b602082019050919050565b600060208201905081810360008301526126b381612677565b9050919050565b7f457363726f77206e6f742064697370757461626c650000000000000000000000600082015250565b60006126f0601583611f86565b91506126fb826126ba565b602082019050919050565b6000602082019050818103600083015261271f816126e3565b9050919050565b6000819050919050565b600067ffffffffffffffff82169050919050565b600061275f61275a61275584612726565b6121fd565b612730565b9050919050565b61276f81612744565b82525050565b600060208201905061278a6000830184612766565b92915050565b61279981611f47565b81146127a457600080fd5b50565b6000815190506127b681612790565b92915050565b6000602082840312156127d2576127d1611b19565b5b60006127e0848285016127a7565b91505092915050565b600081519050919050565b60006127ff826127e9565b612809818561214b565b9350612819818560208601611f97565b80840191505092915050565b600061283182846127f4565b91508190509291505056fea26469706673582212209503cfa1328f4331c981c47290a6d78b7884d22b9995caebec98d64d3bc4b31d64736f6c634300081c0033",
  "linkReferences": {},
  "deployedLinkReferences": {}
}